{
  "contractName": "StagesToken",
  "abi": [
    {
      "constant": true,
      "inputs": [],
      "name": "name",
      "outputs": [
        {
          "name": "",
          "type": "string"
        }
      ],
      "payable": false,
      "stateMutability": "view",
      "type": "function"
    },
    {
      "constant": false,
      "inputs": [
        {
          "name": "spender",
          "type": "address"
        },
        {
          "name": "value",
          "type": "uint256"
        }
      ],
      "name": "approve",
      "outputs": [
        {
          "name": "",
          "type": "bool"
        }
      ],
      "payable": false,
      "stateMutability": "nonpayable",
      "type": "function"
    },
    {
      "constant": true,
      "inputs": [],
      "name": "totalSupply",
      "outputs": [
        {
          "name": "",
          "type": "uint256"
        }
      ],
      "payable": false,
      "stateMutability": "view",
      "type": "function"
    },
    {
      "constant": false,
      "inputs": [
        {
          "name": "from",
          "type": "address"
        },
        {
          "name": "to",
          "type": "address"
        },
        {
          "name": "value",
          "type": "uint256"
        }
      ],
      "name": "transferFrom",
      "outputs": [
        {
          "name": "",
          "type": "bool"
        }
      ],
      "payable": false,
      "stateMutability": "nonpayable",
      "type": "function"
    },
    {
      "constant": true,
      "inputs": [],
      "name": "decimals",
      "outputs": [
        {
          "name": "",
          "type": "uint8"
        }
      ],
      "payable": false,
      "stateMutability": "view",
      "type": "function"
    },
    {
      "constant": false,
      "inputs": [
        {
          "name": "spender",
          "type": "address"
        },
        {
          "name": "addedValue",
          "type": "uint256"
        }
      ],
      "name": "increaseAllowance",
      "outputs": [
        {
          "name": "",
          "type": "bool"
        }
      ],
      "payable": false,
      "stateMutability": "nonpayable",
      "type": "function"
    },
    {
      "constant": false,
      "inputs": [
        {
          "name": "value",
          "type": "uint256"
        }
      ],
      "name": "burn",
      "outputs": [],
      "payable": false,
      "stateMutability": "nonpayable",
      "type": "function"
    },
    {
      "constant": true,
      "inputs": [
        {
          "name": "owner",
          "type": "address"
        }
      ],
      "name": "balanceOf",
      "outputs": [
        {
          "name": "",
          "type": "uint256"
        }
      ],
      "payable": false,
      "stateMutability": "view",
      "type": "function"
    },
    {
      "constant": false,
      "inputs": [
        {
          "name": "from",
          "type": "address"
        },
        {
          "name": "value",
          "type": "uint256"
        }
      ],
      "name": "burnFrom",
      "outputs": [],
      "payable": false,
      "stateMutability": "nonpayable",
      "type": "function"
    },
    {
      "constant": true,
      "inputs": [],
      "name": "symbol",
      "outputs": [
        {
          "name": "",
          "type": "string"
        }
      ],
      "payable": false,
      "stateMutability": "view",
      "type": "function"
    },
    {
      "constant": false,
      "inputs": [
        {
          "name": "spender",
          "type": "address"
        },
        {
          "name": "subtractedValue",
          "type": "uint256"
        }
      ],
      "name": "decreaseAllowance",
      "outputs": [
        {
          "name": "",
          "type": "bool"
        }
      ],
      "payable": false,
      "stateMutability": "nonpayable",
      "type": "function"
    },
    {
      "constant": false,
      "inputs": [
        {
          "name": "to",
          "type": "address"
        },
        {
          "name": "value",
          "type": "uint256"
        }
      ],
      "name": "transfer",
      "outputs": [
        {
          "name": "",
          "type": "bool"
        }
      ],
      "payable": false,
      "stateMutability": "nonpayable",
      "type": "function"
    },
    {
      "constant": true,
      "inputs": [
        {
          "name": "owner",
          "type": "address"
        },
        {
          "name": "spender",
          "type": "address"
        }
      ],
      "name": "allowance",
      "outputs": [
        {
          "name": "",
          "type": "uint256"
        }
      ],
      "payable": false,
      "stateMutability": "view",
      "type": "function"
    },
    {
      "inputs": [
        {
          "name": "name",
          "type": "string"
        },
        {
          "name": "symbol",
          "type": "string"
        },
        {
          "name": "decimals",
          "type": "uint8"
        },
        {
          "name": "totalSupply",
          "type": "uint256"
        }
      ],
      "payable": false,
      "stateMutability": "nonpayable",
      "type": "constructor"
    },
    {
      "anonymous": false,
      "inputs": [
        {
          "indexed": true,
          "name": "from",
          "type": "address"
        },
        {
          "indexed": true,
          "name": "to",
          "type": "address"
        },
        {
          "indexed": false,
          "name": "value",
          "type": "uint256"
        }
      ],
      "name": "Transfer",
      "type": "event"
    },
    {
      "anonymous": false,
      "inputs": [
        {
          "indexed": true,
          "name": "owner",
          "type": "address"
        },
        {
          "indexed": true,
          "name": "spender",
          "type": "address"
        },
        {
          "indexed": false,
          "name": "value",
          "type": "uint256"
        }
      ],
      "name": "Approval",
      "type": "event"
    },
    {
      "constant": true,
      "inputs": [],
      "name": "Item",
      "outputs": [
        {
          "name": "",
          "type": "address"
        }
      ],
      "payable": false,
      "stateMutability": "view",
      "type": "function"
    },
    {
      "constant": true,
      "inputs": [],
      "name": "ItemBalance",
      "outputs": [
        {
          "name": "",
          "type": "uint256"
        }
      ],
      "payable": false,
      "stateMutability": "view",
      "type": "function"
    },
    {
      "constant": true,
      "inputs": [],
      "name": "StagesLen",
      "outputs": [
        {
          "name": "",
          "type": "uint256"
        }
      ],
      "payable": false,
      "stateMutability": "view",
      "type": "function"
    },
    {
      "constant": true,
      "inputs": [],
      "name": "CurrentStageIdx",
      "outputs": [
        {
          "name": "",
          "type": "uint256"
        }
      ],
      "payable": false,
      "stateMutability": "view",
      "type": "function"
    },
    {
      "constant": true,
      "inputs": [
        {
          "name": "idx",
          "type": "uint256"
        }
      ],
      "name": "GetStages",
      "outputs": [
        {
          "name": "",
          "type": "string"
        }
      ],
      "payable": false,
      "stateMutability": "view",
      "type": "function"
    },
    {
      "constant": true,
      "inputs": [
        {
          "name": "stageIdx",
          "type": "uint256"
        },
        {
          "name": "investorIdx",
          "type": "uint256"
        }
      ],
      "name": "GetStageInvestor",
      "outputs": [
        {
          "name": "",
          "type": "address"
        },
        {
          "name": "",
          "type": "string"
        }
      ],
      "payable": false,
      "stateMutability": "view",
      "type": "function"
    },
    {
      "constant": false,
      "inputs": [
        {
          "name": "saleBeginTime",
          "type": "uint256"
        },
        {
          "name": "saleEndTime",
          "type": "uint256"
        },
        {
          "name": "lockBeginTime",
          "type": "uint256"
        },
        {
          "name": "lockEndTime",
          "type": "uint256"
        },
        {
          "name": "voteBeginTime",
          "type": "uint256"
        },
        {
          "name": "voteEndTime",
          "type": "uint256"
        },
        {
          "name": "changeRate",
          "type": "uint256"
        },
        {
          "name": "targetAgreeRate",
          "type": "uint256"
        }
      ],
      "name": "AppendStage",
      "outputs": [],
      "payable": false,
      "stateMutability": "nonpayable",
      "type": "function"
    },
    {
      "constant": false,
      "inputs": [],
      "name": "SwitchStage",
      "outputs": [],
      "payable": false,
      "stateMutability": "nonpayable",
      "type": "function"
    },
    {
      "constant": false,
      "inputs": [],
      "name": "Invest",
      "outputs": [],
      "payable": true,
      "stateMutability": "payable",
      "type": "function"
    },
    {
      "constant": false,
      "inputs": [
        {
          "name": "isAgree",
          "type": "uint256"
        }
      ],
      "name": "Vote",
      "outputs": [],
      "payable": false,
      "stateMutability": "nonpayable",
      "type": "function"
    },
    {
      "constant": false,
      "inputs": [],
      "name": "InvestorWithdrawToken",
      "outputs": [],
      "payable": false,
      "stateMutability": "nonpayable",
      "type": "function"
    },
    {
      "constant": false,
      "inputs": [],
      "name": "InvestorWithdrawAbs",
      "outputs": [],
      "payable": false,
      "stateMutability": "nonpayable",
      "type": "function"
    },
    {
      "constant": false,
      "inputs": [],
      "name": "ItemWithdrawABS",
      "outputs": [],
      "payable": false,
      "stateMutability": "nonpayable",
      "type": "function"
    },
    {
      "constant": false,
      "inputs": [],
      "name": "ItemWithdrawToken",
      "outputs": [],
      "payable": false,
      "stateMutability": "nonpayable",
      "type": "function"
    }
  ],
  "bytecode": "0x60806040523480156200001157600080fd5b5060405162004384380380620043848339810180604052810190808051820192919060200180518201929190602001805190602001909291908051906020019092919050505083838382600390805190602001906200007292919062000173565b5081600490805190602001906200008b92919062000173565b5080600560006101000a81548160ff021916908360ff1602179055505050508160ff16600a0a810260028190555033600560016101000a81548173ffffffffffffffffffffffffffffffffffffffff021916908373ffffffffffffffffffffffffffffffffffffffff160217905550600254600080600560019054906101000a900473ffffffffffffffffffffffffffffffffffffffff1673ffffffffffffffffffffffffffffffffffffffff1673ffffffffffffffffffffffffffffffffffffffff1681526020019081526020016000208190555060006007819055505050505062000222565b828054600181600116156101000203166002900490600052602060002090601f016020900481019282601f10620001b657805160ff1916838001178555620001e7565b82800160010185558215620001e7579182015b82811115620001e6578251825591602001919060010190620001c9565b5b509050620001f69190620001fa565b5090565b6200021f91905b808211156200021b57600081600090555060010162000201565b5090565b90565b61415280620002326000396000f30060806040526004361061015f576000357c0100000000000000000000000000000000000000000000000000000000900463ffffffff16806306fdde0314610164578063095ea7b3146101f457806318160ddd1461025957806321ea32d61461028457806323b872dd1461029b578063313ce56714610320578063395093511461035157806342966c68146103b657806343e61088146103e3578063643378541461040e57806367053f36146104255780636a7a67f01461043c57806370a08231146104935780637644ebd7146104ea57806379478d011461051557806379cc6790146105bb5780638c47e81d1461060857806395d89b41146106eb578063a457c2d71461077b578063a9059cbb146107e0578063c081996114610845578063dcd6a5cd1461084f578063dd62ed3e1461087c578063dfb5cfd3146108f3578063e51d13461461091e578063e593fc9814610935578063ed666b78146109a8575b600080fd5b34801561017057600080fd5b506101796109bf565b6040518080602001828103825283818151815260200191508051906020019080838360005b838110156101b957808201518184015260208101905061019e565b50505050905090810190601f1680156101e65780820380516001836020036101000a031916815260200191505b509250505060405180910390f35b34801561020057600080fd5b5061023f600480360381019080803573ffffffffffffffffffffffffffffffffffffffff16906020019092919080359060200190929190505050610a61565b604051808215151515815260200191505060405180910390f35b34801561026557600080fd5b5061026e610b8e565b6040518082815260200191505060405180910390f35b34801561029057600080fd5b50610299610b98565b005b3480156102a757600080fd5b50610306600480360381019080803573ffffffffffffffffffffffffffffffffffffffff169060200190929190803573ffffffffffffffffffffffffffffffffffffffff16906020019092919080359060200190929190505050610c13565b604051808215151515815260200191505060405180910390f35b34801561032c57600080fd5b50610335610fce565b604051808260ff1660ff16815260200191505060405180910390f35b34801561035d57600080fd5b5061039c600480360381019080803573ffffffffffffffffffffffffffffffffffffffff16906020019092919080359060200190929190505050610fe5565b604051808215151515815260200191505060405180910390f35b3480156103c257600080fd5b506103e16004803603810190808035906020019092919050505061121c565b005b3480156103ef57600080fd5b506103f8611229565b6040518082815260200191505060405180910390f35b34801561041a57600080fd5b50610423611236565b005b34801561043157600080fd5b5061043a6113cf565b005b34801561044857600080fd5b50610451611569565b604051808273ffffffffffffffffffffffffffffffffffffffff1673ffffffffffffffffffffffffffffffffffffffff16815260200191505060405180910390f35b34801561049f57600080fd5b506104d4600480360381019080803573ffffffffffffffffffffffffffffffffffffffff169060200190929190505050611593565b6040518082815260200191505060405180910390f35b3480156104f657600080fd5b506104ff6115db565b6040518082815260200191505060405180910390f35b34801561052157600080fd5b506105406004803603810190808035906020019092919050505061160d565b6040518080602001828103825283818151815260200191508051906020019080838360005b83811015610580578082015181840152602081019050610565565b50505050905090810190601f1680156105ad5780820380516001836020036101000a031916815260200191505b509250505060405180910390f35b3480156105c757600080fd5b50610606600480360381019080803573ffffffffffffffffffffffffffffffffffffffff16906020019092919080359060200190929190505050611a51565b005b34801561061457600080fd5b5061063d6004803603810190808035906020019092919080359060200190929190505050611a5f565b604051808373ffffffffffffffffffffffffffffffffffffffff1673ffffffffffffffffffffffffffffffffffffffff16815260200180602001828103825283818151815260200191508051906020019080838360005b838110156106af578082015181840152602081019050610694565b50505050905090810190601f1680156106dc5780820380516001836020036101000a031916815260200191505b50935050505060405180910390f35b3480156106f757600080fd5b50610700611c9f565b6040518080602001828103825283818151815260200191508051906020019080838360005b83811015610740578082015181840152602081019050610725565b50505050905090810190601f16801561076d5780820380516001836020036101000a031916815260200191505b509250505060405180910390f35b34801561078757600080fd5b506107c6600480360381019080803573ffffffffffffffffffffffffffffffffffffffff16906020019092919080359060200190929190505050611d41565b604051808215151515815260200191505060405180910390f35b3480156107ec57600080fd5b5061082b600480360381019080803573ffffffffffffffffffffffffffffffffffffffff16906020019092919080359060200190929190505050611f78565b604051808215151515815260200191505060405180910390f35b61084d612198565b005b34801561085b57600080fd5b5061087a60048036038101908080359060200190929190505050612602565b005b34801561088857600080fd5b506108dd600480360381019080803573ffffffffffffffffffffffffffffffffffffffff169060200190929190803573ffffffffffffffffffffffffffffffffffffffff16906020019092919050505061292b565b6040518082815260200191505060405180910390f35b3480156108ff57600080fd5b506109086129b2565b6040518082815260200191505060405180910390f35b34801561092a57600080fd5b506109336129bc565b005b34801561094157600080fd5b506109a66004803603810190808035906020019092919080359060200190929190803590602001909291908035906020019092919080359060200190929190803590602001909291908035906020019092919080359060200190929190505050612b57565b005b3480156109b457600080fd5b506109bd612cbb565b005b606060038054600181600116156101000203166002900480601f016020809104026020016040519081016040528092919081815260200182805460018160011615610100020316600290048015610a575780601f10610a2c57610100808354040283529160200191610a57565b820191906000526020600020905b815481529060010190602001808311610a3a57829003601f168201915b5050505050905090565b60008073ffffffffffffffffffffffffffffffffffffffff168373ffffffffffffffffffffffffffffffffffffffff1614151515610a9e57600080fd5b81600160003373ffffffffffffffffffffffffffffffffffffffff1673ffffffffffffffffffffffffffffffffffffffff16815260200190815260200160002060008573ffffffffffffffffffffffffffffffffffffffff1673ffffffffffffffffffffffffffffffffffffffff168152602001908152602001600020819055508273ffffffffffffffffffffffffffffffffffffffff163373ffffffffffffffffffffffffffffffffffffffff167f8c5be1e5ebec7d5bd14f71427d1e84f3dd0314c0f7b2291e5b200ac8c7c3b925846040518082815260200191505060405180910390a36001905092915050565b6000600254905090565b600060075490505b600680549050811015610bed57610bd6600682815481101515610bbf57fe5b906000526020600020906009020160000142612e53565b15610be057610bed565b8080600101915050610ba0565b6007548114158015610c03575060068054905081105b15610c1057806007819055505b50565b60008060008573ffffffffffffffffffffffffffffffffffffffff1673ffffffffffffffffffffffffffffffffffffffff168152602001908152602001600020548211151515610c6257600080fd5b600160008573ffffffffffffffffffffffffffffffffffffffff1673ffffffffffffffffffffffffffffffffffffffff16815260200190815260200160002060003373ffffffffffffffffffffffffffffffffffffffff1673ffffffffffffffffffffffffffffffffffffffff168152602001908152602001600020548211151515610ced57600080fd5b600073ffffffffffffffffffffffffffffffffffffffff168373ffffffffffffffffffffffffffffffffffffffff1614151515610d2957600080fd5b610d7a826000808773ffffffffffffffffffffffffffffffffffffffff1673ffffffffffffffffffffffffffffffffffffffff16815260200190815260200160002054612e7590919063ffffffff16565b6000808673ffffffffffffffffffffffffffffffffffffffff1673ffffffffffffffffffffffffffffffffffffffff16815260200190815260200160002081905550610e0d826000808673ffffffffffffffffffffffffffffffffffffffff1673ffffffffffffffffffffffffffffffffffffffff16815260200190815260200160002054612e9690919063ffffffff16565b6000808573ffffffffffffffffffffffffffffffffffffffff1673ffffffffffffffffffffffffffffffffffffffff16815260200190815260200160002081905550610ede82600160008773ffffffffffffffffffffffffffffffffffffffff1673ffffffffffffffffffffffffffffffffffffffff16815260200190815260200160002060003373ffffffffffffffffffffffffffffffffffffffff1673ffffffffffffffffffffffffffffffffffffffff16815260200190815260200160002054612e7590919063ffffffff16565b600160008673ffffffffffffffffffffffffffffffffffffffff1673ffffffffffffffffffffffffffffffffffffffff16815260200190815260200160002060003373ffffffffffffffffffffffffffffffffffffffff1673ffffffffffffffffffffffffffffffffffffffff168152602001908152602001600020819055508273ffffffffffffffffffffffffffffffffffffffff168473ffffffffffffffffffffffffffffffffffffffff167fddf252ad1be2c89b69c2b068fc378daa952ba7f163c4a11628f55a4df523b3ef846040518082815260200191505060405180910390a3600190509392505050565b6000600560009054906101000a900460ff16905090565b60008073ffffffffffffffffffffffffffffffffffffffff168373ffffffffffffffffffffffffffffffffffffffff161415151561102257600080fd5b6110b182600160003373ffffffffffffffffffffffffffffffffffffffff1673ffffffffffffffffffffffffffffffffffffffff16815260200190815260200160002060008673ffffffffffffffffffffffffffffffffffffffff1673ffffffffffffffffffffffffffffffffffffffff16815260200190815260200160002054612e9690919063ffffffff16565b600160003373ffffffffffffffffffffffffffffffffffffffff1673ffffffffffffffffffffffffffffffffffffffff16815260200190815260200160002060008573ffffffffffffffffffffffffffffffffffffffff1673ffffffffffffffffffffffffffffffffffffffff168152602001908152602001600020819055508273ffffffffffffffffffffffffffffffffffffffff163373ffffffffffffffffffffffffffffffffffffffff167f8c5be1e5ebec7d5bd14f71427d1e84f3dd0314c0f7b2291e5b200ac8c7c3b925600160003373ffffffffffffffffffffffffffffffffffffffff1673ffffffffffffffffffffffffffffffffffffffff16815260200190815260200160002060008773ffffffffffffffffffffffffffffffffffffffff1673ffffffffffffffffffffffffffffffffffffffff168152602001908152602001600020546040518082815260200191505060405180910390a36001905092915050565b6112263382612eb7565b50565b6000600680549050905090565b6000600560019054906101000a900473ffffffffffffffffffffffffffffffffffffffff1673ffffffffffffffffffffffffffffffffffffffff163373ffffffffffffffffffffffffffffffffffffffff161415156112fd576040517f08c379a00000000000000000000000000000000000000000000000000000000081526004018080602001828103825260098152602001807f6f6e6c79206974656d000000000000000000000000000000000000000000000081525060200191505060405180910390fd5b600090505b6006805490508110156113cc5761133860068281548110151561132157fe5b906000526020600020906009020160000142612ec5565b1515611343576113bf565b61138c60068281548110151561135557fe5b906000526020600020906009020160080160068381548110151561137557fe5b906000526020600020906009020160070154612f0c565b15156113be576113bd6006828154811015156113a457fe5b90600052602060002090600902016008016130326130c8565b5b5b8080600101915050611302565b50565b6000600560019054906101000a900473ffffffffffffffffffffffffffffffffffffffff1673ffffffffffffffffffffffffffffffffffffffff163373ffffffffffffffffffffffffffffffffffffffff1614151515611497576040517f08c379a000000000000000000000000000000000000000000000000000000000815260040180806020018281038252600d8152602001807f6f6e6c7920696e766573746f720000000000000000000000000000000000000081525060200191505060405180910390fd5b600090505b600680549050811015611566576114d26006828154811015156114bb57fe5b906000526020600020906009020160000142612ec5565b15156114dd57611559565b6115266006828154811015156114ef57fe5b906000526020600020906009020160080160068381548110151561150f57fe5b906000526020600020906009020160070154612f0c565b156115585761155760068281548110151561153d57fe5b90600052602060002090600902016008013361303261313d565b5b5b808060010191505061149c565b50565b6000600560019054906101000a900473ffffffffffffffffffffffffffffffffffffffff16905090565b60008060008373ffffffffffffffffffffffffffffffffffffffff1673ffffffffffffffffffffffffffffffffffffffff168152602001908152602001600020549050919050565b6000611608600560019054906101000a900473ffffffffffffffffffffffffffffffffffffffff16611593565b905090565b6060806006805490508310151561168c576040517f08c379a00000000000000000000000000000000000000000000000000000000081526004018080602001828103825260128152602001807f696e646578206f7574206f662072616e6765000000000000000000000000000081525060200191505060405180910390fd5b602060405190810160405280600081525090506116cc816006858154811015156116b257fe5b906000526020600020906009020160000160000154613227565b905061170d816040805190810160405280600181526020017f7c000000000000000000000000000000000000000000000000000000000000008152506134c2565b905061173c8160068581548110151561172257fe5b906000526020600020906009020160000160010154613227565b905061177d816040805190810160405280600181526020017f7c000000000000000000000000000000000000000000000000000000000000008152506134c2565b90506117ac8160068581548110151561179257fe5b906000526020600020906009020160000160020154613227565b90506117ed816040805190810160405280600181526020017f7c000000000000000000000000000000000000000000000000000000000000008152506134c2565b905061181c8160068581548110151561180257fe5b906000526020600020906009020160000160030154613227565b905061185d816040805190810160405280600181526020017f7c000000000000000000000000000000000000000000000000000000000000008152506134c2565b905061188c8160068581548110151561187257fe5b906000526020600020906009020160000160040154613227565b90506118cd816040805190810160405280600181526020017f7c000000000000000000000000000000000000000000000000000000000000008152506134c2565b90506118fc816006858154811015156118e257fe5b906000526020600020906009020160000160050154613227565b905061193d816040805190810160405280600181526020017f7c000000000000000000000000000000000000000000000000000000000000008152506134c2565b90506119698160068581548110151561195257fe5b906000526020600020906009020160060154613227565b90506119aa816040805190810160405280600181526020017f7c000000000000000000000000000000000000000000000000000000000000008152506134c2565b90506119d6816006858154811015156119bf57fe5b906000526020600020906009020160070154613227565b9050611a17816040805190810160405280600181526020017f7c000000000000000000000000000000000000000000000000000000000000008152506134c2565b9050611a4681600685815481101515611a2c57fe5b906000526020600020906009020160080180549050613227565b905080915050919050565b611a5b8282613695565b5050565b60006060600080606060068054905087101515611ae4576040517f08c379a00000000000000000000000000000000000000000000000000000000081526004018080602001828103825260128152602001807f696e646578206f7574206f662072616e6765000000000000000000000000000081525060200191505060405180910390fd5b600687815481101515611af357fe5b90600052602060002090600902019250826008018054905086101515611b81576040517f08c379a00000000000000000000000000000000000000000000000000000000081526004018080602001828103825260128152602001807f696e646578206f7574206f662072616e6765000000000000000000000000000081525060200191505060405180910390fd5b8260080186815481101515611b9257fe5b9060005260206000209060040201915060206040519081016040528060008152509050611bc3818360010154613227565b9050611c04816040805190810160405280600181526020017f7c000000000000000000000000000000000000000000000000000000000000008152506134c2565b9050611c14818360020154613227565b9050611c55816040805190810160405280600181526020017f7c000000000000000000000000000000000000000000000000000000000000008152506134c2565b9050611c6981611c648461383d565b613227565b90508160000160009054906101000a900473ffffffffffffffffffffffffffffffffffffffff1681945094505050509250929050565b606060048054600181600116156101000203166002900480601f016020809104026020016040519081016040528092919081815260200182805460018160011615610100020316600290048015611d375780601f10611d0c57610100808354040283529160200191611d37565b820191906000526020600020905b815481529060010190602001808311611d1a57829003601f168201915b5050505050905090565b60008073ffffffffffffffffffffffffffffffffffffffff168373ffffffffffffffffffffffffffffffffffffffff1614151515611d7e57600080fd5b611e0d82600160003373ffffffffffffffffffffffffffffffffffffffff1673ffffffffffffffffffffffffffffffffffffffff16815260200190815260200160002060008673ffffffffffffffffffffffffffffffffffffffff1673ffffffffffffffffffffffffffffffffffffffff16815260200190815260200160002054612e7590919063ffffffff16565b600160003373ffffffffffffffffffffffffffffffffffffffff1673ffffffffffffffffffffffffffffffffffffffff16815260200190815260200160002060008573ffffffffffffffffffffffffffffffffffffffff1673ffffffffffffffffffffffffffffffffffffffff168152602001908152602001600020819055508273ffffffffffffffffffffffffffffffffffffffff163373ffffffffffffffffffffffffffffffffffffffff167f8c5be1e5ebec7d5bd14f71427d1e84f3dd0314c0f7b2291e5b200ac8c7c3b925600160003373ffffffffffffffffffffffffffffffffffffffff1673ffffffffffffffffffffffffffffffffffffffff16815260200190815260200160002060008773ffffffffffffffffffffffffffffffffffffffff1673ffffffffffffffffffffffffffffffffffffffff168152602001908152602001600020546040518082815260200191505060405180910390a36001905092915050565b60008060003373ffffffffffffffffffffffffffffffffffffffff1673ffffffffffffffffffffffffffffffffffffffff168152602001908152602001600020548211151515611fc757600080fd5b600073ffffffffffffffffffffffffffffffffffffffff168373ffffffffffffffffffffffffffffffffffffffff161415151561200357600080fd5b612054826000803373ffffffffffffffffffffffffffffffffffffffff1673ffffffffffffffffffffffffffffffffffffffff16815260200190815260200160002054612e7590919063ffffffff16565b6000803373ffffffffffffffffffffffffffffffffffffffff1673ffffffffffffffffffffffffffffffffffffffff168152602001908152602001600020819055506120e7826000808673ffffffffffffffffffffffffffffffffffffffff1673ffffffffffffffffffffffffffffffffffffffff16815260200190815260200160002054612e9690919063ffffffff16565b6000808573ffffffffffffffffffffffffffffffffffffffff1673ffffffffffffffffffffffffffffffffffffffff168152602001908152602001600020819055508273ffffffffffffffffffffffffffffffffffffffff163373ffffffffffffffffffffffffffffffffffffffff167fddf252ad1be2c89b69c2b068fc378daa952ba7f163c4a11628f55a4df523b3ef846040518082815260200191505060405180910390a36001905092915050565b60008060008060006121a8613fa6565b600560019054906101000a900473ffffffffffffffffffffffffffffffffffffffff1673ffffffffffffffffffffffffffffffffffffffff163373ffffffffffffffffffffffffffffffffffffffff161415151561226e576040517f08c379a000000000000000000000000000000000000000000000000000000000815260040180806020018281038252600d8152602001807f6f6e6c7920696e766573746f720000000000000000000000000000000000000081525060200191505060405180910390fd5b612299600660075481548110151561228257fe5b906000526020600020906009020160000142612e53565b151561230d576040517f08c379a00000000000000000000000000000000000000000000000000000000081526004018080602001828103825260118152602001807f6f6e6c7920696e2073616c652074696d6500000000000000000000000000000081525060200191505060405180910390fd5b600660075481548110151561231e57fe5b9060005260206000209060090201955061233b8660080133613964565b9450945061234d348760060154613a18565b9250600080600560019054906101000a900473ffffffffffffffffffffffffffffffffffffffff1673ffffffffffffffffffffffffffffffffffffffff1673ffffffffffffffffffffffffffffffffffffffff168152602001908152602001600020548311151515612427576040517f08c379a00000000000000000000000000000000000000000000000000000000081526004018080602001828103825260178152602001807f6974656d2062616c616e6365206e6f7420656e6f75676800000000000000000081525060200191505060405180910390fd5b61249a83600080600560019054906101000a900473ffffffffffffffffffffffffffffffffffffffff1673ffffffffffffffffffffffffffffffffffffffff1673ffffffffffffffffffffffffffffffffffffffff16815260200190815260200160002054612e7590919063ffffffff16565b600080600560019054906101000a900473ffffffffffffffffffffffffffffffffffffffff1673ffffffffffffffffffffffffffffffffffffffff1673ffffffffffffffffffffffffffffffffffffffff16815260200190815260200160002081905550841561253557856008018481548110151561251557fe5b90600052602060002090600402019150612530823485613a35565b6125fa565b612540333485613a78565b905085600801819080600181540180825580915050906001820390600052602060002090600402016000909192909190915060008201518160000160006101000a81548173ffffffffffffffffffffffffffffffffffffffff021916908373ffffffffffffffffffffffffffffffffffffffff160217905550602082015181600101556040820151816002015560608201518160030160006101000a81548160ff021916908360028111156125f157fe5b02179055505050505b505050505050565b600080600080600560019054906101000a900473ffffffffffffffffffffffffffffffffffffffff1673ffffffffffffffffffffffffffffffffffffffff163373ffffffffffffffffffffffffffffffffffffffff16141515156126ce576040517f08c379a000000000000000000000000000000000000000000000000000000000815260040180806020018281038252600d8152602001807f6f6e6c7920696e766573746f720000000000000000000000000000000000000081525060200191505060405180910390fd5b6126f960066007548154811015156126e257fe5b906000526020600020906009020160000142613b02565b151561276d576040517f08c379a00000000000000000000000000000000000000000000000000000000081526004018080602001828103825260118152602001807f6f6e6c7920696e20766f74652074696d6500000000000000000000000000000081525060200191505060405180910390fd5b600660075481548110151561277e57fe5b9060005260206000209060090201935061279b8460080133613964565b9250925082151561283a576040517f08c379a000000000000000000000000000000000000000000000000000000000815260040180806020018281038252602a8152602001807f696e766573746f7220646964206e6f7420706172746963697061746520696e2081526020017f74686520696e766573740000000000000000000000000000000000000000000081525060400191505060405180910390fd5b836008018281548110151561284b57fe5b9060005260206000209060040201905061286481613b24565b1515156128ff576040517f08c379a00000000000000000000000000000000000000000000000000000000081526004018080602001828103825260258152602001807f696e766573746f72206861766520706172746963697061746520696e2074686581526020017f20766f746500000000000000000000000000000000000000000000000000000081525060400191505060405180910390fd5b600085141561291857612913816000613b58565b612924565b612923816001613b58565b5b5050505050565b6000600160008473ffffffffffffffffffffffffffffffffffffffff1673ffffffffffffffffffffffffffffffffffffffff16815260200190815260200160002060008373ffffffffffffffffffffffffffffffffffffffff1673ffffffffffffffffffffffffffffffffffffffff16815260200190815260200160002054905092915050565b6000600754905090565b6000600560019054906101000a900473ffffffffffffffffffffffffffffffffffffffff1673ffffffffffffffffffffffffffffffffffffffff163373ffffffffffffffffffffffffffffffffffffffff1614151515612a84576040517f08c379a000000000000000000000000000000000000000000000000000000000815260040180806020018281038252600d8152602001807f6f6e6c7920696e766573746f720000000000000000000000000000000000000081525060200191505060405180910390fd5b600090505b600680549050811015612b5457612abf600682815481101515612aa857fe5b906000526020600020906009020160000142612ec5565b1515612aca57612b47565b612b13600682815481101515612adc57fe5b9060005260206000209060090201600801600683815481101515612afc57fe5b906000526020600020906009020160070154612f0c565b1515612b4657612b45600682815481101515612b2b57fe5b906000526020600020906009020160080133613bb4613bfe565b5b5b8080600101915050612a89565b50565b6000600680549050905060068054809190600101612b759190613ff0565b5082600682815481101515612b8657fe5b90600052602060002090600902016006018190555081600682815481101515612bab57fe5b90600052602060002090600902016007018190555088600682815481101515612bd057fe5b90600052602060002090600902016000016000018190555087600682815481101515612bf857fe5b90600052602060002090600902016000016001018190555086600682815481101515612c2057fe5b90600052602060002090600902016000016002018190555085600682815481101515612c4857fe5b90600052602060002090600902016000016003018190555084600682815481101515612c7057fe5b90600052602060002090600902016000016004018190555083600682815481101515612c9857fe5b906000526020600020906009020160000160050181905550505050505050505050565b6000600560019054906101000a900473ffffffffffffffffffffffffffffffffffffffff1673ffffffffffffffffffffffffffffffffffffffff163373ffffffffffffffffffffffffffffffffffffffff16141515612d82576040517f08c379a00000000000000000000000000000000000000000000000000000000081526004018080602001828103825260098152602001807f6f6e6c79206974656d000000000000000000000000000000000000000000000081525060200191505060405180910390fd5b600090505b600680549050811015612e5057612dbd600682815481101515612da657fe5b906000526020600020906009020160000142612ec5565b1515612dc857612e43565b612e11600682815481101515612dda57fe5b9060005260206000209060090201600801600683815481101515612dfa57fe5b906000526020600020906009020160070154612f0c565b15612e4257612e41600682815481101515612e2857fe5b9060005260206000209060090201600801613bb4613ce8565b5b5b8080600101915050612d87565b50565b600082600001548210158015612e6d575082600101548211155b905092915050565b600080838311151515612e8757600080fd5b82840390508091505092915050565b6000808284019050838110151515612ead57600080fd5b8091505092915050565b612ec18282613d5d565b5050565b6000612ed18383612e53565b80612ee25750612ee18383613ee8565b5b80612ef35750612ef28383613b02565b5b15612f015760009050612f06565b600190505b92915050565b60008060008060009250600091505b8580549050821015612f6657612f4b8683815481101515612f3857fe5b9060005260206000209060040201613f0a565b15612f595782806001019350505b8180600101925050612f1b565b6000868054905014151515612fe3576040517f08c379a00000000000000000000000000000000000000000000000000000000081526004018080602001828103825260128152602001807f6e6f20696e766573746f727320766f746564000000000000000000000000000081525060200191505060405180910390fd5b61300e868054905061300061271086613f3e90919063ffffffff16565b613f7c90919063ffffffff16565b9050613024606486613f3e90919063ffffffff16565b811015935050505092915050565b613083816000803373ffffffffffffffffffffffffffffffffffffffff1673ffffffffffffffffffffffffffffffffffffffff16815260200190815260200160002054612e9690919063ffffffff16565b6000803373ffffffffffffffffffffffffffffffffffffffff1673ffffffffffffffffffffffffffffffffffffffff1681526020019081526020016000208190555050565b60008090505b82805490508110156131385761310683828154811015156130eb57fe5b9060005260206000209060040201600201548363ffffffff16565b6000838281548110151561311657fe5b90600052602060002090600402016002018190555080806001019150506130ce565b505050565b60008090505b8380549050811015613221578273ffffffffffffffffffffffffffffffffffffffff16848281548110151561317457fe5b906000526020600020906004020160000160009054906101000a900473ffffffffffffffffffffffffffffffffffffffff1673ffffffffffffffffffffffffffffffffffffffff161415613214576131ee84828154811015156131d357fe5b9060005260206000209060040201600201548363ffffffff16565b600084828154811015156131fe57fe5b9060005260206000209060040201600201819055505b8080600101915050613143565b50505050565b606060006060600080606080600060649650866040519080825280601f01601f19166020018201604052801561326c5781602001602082028038833980820191505090505b509550600094505b60008914151561330b57600a8981151561328a57fe5b069350600a8981151561329957fe5b049850836030017f01000000000000000000000000000000000000000000000000000000000000000286868060010197508151811015156132d657fe5b9060200101907effffffffffffffffffffffffffffffffffffffffffffffffffffffffffffff1916908160001a905350613274565b899250848351016040519080825280601f01601f1916602001820160405280156133445781602001602082028038833980820191505090505b509150600090505b82518110156133f957828181518110151561336357fe5b9060200101517f010000000000000000000000000000000000000000000000000000000000000090047f01000000000000000000000000000000000000000000000000000000000000000282828151811015156133bc57fe5b9060200101907effffffffffffffffffffffffffffffffffffffffffffffffffffffffffffff1916908160001a905350808060010191505061334c565b600090505b848110156134b2578581600187030381518110151561341957fe5b9060200101517f010000000000000000000000000000000000000000000000000000000000000090047f010000000000000000000000000000000000000000000000000000000000000002828451830181518110151561347557fe5b9060200101907effffffffffffffffffffffffffffffffffffffffffffffffffffffffffffff1916908160001a90535080806001019150506133fe565b8197505050505050505092915050565b606080606080606060008088955087945084518651016040519080825280601f01601f19166020018201604052801561350a5781602001602082028038833980820191505090505b509350839250600091505b85518210156135c857858281518110151561352c57fe5b9060200101517f010000000000000000000000000000000000000000000000000000000000000090047f010000000000000000000000000000000000000000000000000000000000000002838280600101935081518110151561358b57fe5b9060200101907effffffffffffffffffffffffffffffffffffffffffffffffffffffffffffff1916908160001a9053508180600101925050613515565b600091505b84518210156136865784828060010193508151811015156135ea57fe5b9060200101517f010000000000000000000000000000000000000000000000000000000000000090047f010000000000000000000000000000000000000000000000000000000000000002838280600101935081518110151561364957fe5b9060200101907effffffffffffffffffffffffffffffffffffffffffffffffffffffffffffff1916908160001a90535081806001019250506135cd565b82965050505050505092915050565b600160008373ffffffffffffffffffffffffffffffffffffffff1673ffffffffffffffffffffffffffffffffffffffff16815260200190815260200160002060003373ffffffffffffffffffffffffffffffffffffffff1673ffffffffffffffffffffffffffffffffffffffff16815260200190815260200160002054811115151561372057600080fd5b6137af81600160008573ffffffffffffffffffffffffffffffffffffffff1673ffffffffffffffffffffffffffffffffffffffff16815260200190815260200160002060003373ffffffffffffffffffffffffffffffffffffffff1673ffffffffffffffffffffffffffffffffffffffff16815260200190815260200160002054612e7590919063ffffffff16565b600160008473ffffffffffffffffffffffffffffffffffffffff1673ffffffffffffffffffffffffffffffffffffffff16815260200190815260200160002060003373ffffffffffffffffffffffffffffffffffffffff1673ffffffffffffffffffffffffffffffffffffffff168152602001908152602001600020819055506138398282612eb7565b5050565b600080600281111561384b57fe5b8260030160009054906101000a900460ff16600281111561386857fe5b1415613877576001905061395f565b6001600281111561388457fe5b8260030160009054906101000a900460ff1660028111156138a157fe5b14156138b0576002905061395f565b6002808111156138bc57fe5b8260030160009054906101000a900460ff1660028111156138d957fe5b14156138e8576003905061395f565b6000151561395e576040517f08c379a000000000000000000000000000000000000000000000000000000000815260040180806020018281038252600a8152602001807f696d706f737369626c650000000000000000000000000000000000000000000081525060200191505060405180910390fd5b5b919050565b60008060008090505b8480549050811015613a05578373ffffffffffffffffffffffffffffffffffffffff16858281548110151561399e57fe5b906000526020600020906004020160000160009054906101000a900473ffffffffffffffffffffffffffffffffffffffff1673ffffffffffffffffffffffffffffffffffffffff1614156139f85760018192509250613a10565b808060010191505061396d565b600080809050925092505b509250929050565b6000613a2d8284613f3e90919063ffffffff16565b905092915050565b613a4c828460010154612e9690919063ffffffff16565b8360010181905550613a6b818460020154612e9690919063ffffffff16565b8360020181905550505050565b613a80613fa6565b613a88613fa6565b84816000019073ffffffffffffffffffffffffffffffffffffffff16908173ffffffffffffffffffffffffffffffffffffffff16815250508381602001818152505082816040018181525050600081606001906002811115613ae657fe5b90816002811115613af357fe5b81525050809150509392505050565b600082600401548210158015613b1c575082600501548211155b905092915050565b6000806002811115613b3257fe5b8260030160009054906101000a900460ff166002811115613b4f57fe5b14159050919050565b8015613b895760018260030160006101000a81548160ff02191690836002811115613b7f57fe5b0217905550613bb0565b60028260030160006101000a81548160ff02191690836002811115613baa57fe5b02179055505b5050565b3373ffffffffffffffffffffffffffffffffffffffff166108fc829081150290604051600060405180830381858888f19350505050158015613bfa573d6000803e3d6000fd5b5050565b60008090505b8380549050811015613ce2578273ffffffffffffffffffffffffffffffffffffffff168482815481101515613c3557fe5b906000526020600020906004020160000160009054906101000a900473ffffffffffffffffffffffffffffffffffffffff1673ffffffffffffffffffffffffffffffffffffffff161415613cd557613caf8482815481101515613c9457fe5b9060005260206000209060040201600101548363ffffffff16565b60008482815481101515613cbf57fe5b9060005260206000209060040201600101819055505b8080600101915050613c04565b50505050565b60008090505b8280549050811015613d5857613d268382815481101515613d0b57fe5b9060005260206000209060040201600101548363ffffffff16565b60008382815481101515613d3657fe5b9060005260206000209060040201600101819055508080600101915050613cee565b505050565b60008273ffffffffffffffffffffffffffffffffffffffff1614151515613d8357600080fd5b6000808373ffffffffffffffffffffffffffffffffffffffff1673ffffffffffffffffffffffffffffffffffffffff168152602001908152602001600020548111151515613dd057600080fd5b613de581600254612e7590919063ffffffff16565b600281905550613e3c816000808573ffffffffffffffffffffffffffffffffffffffff1673ffffffffffffffffffffffffffffffffffffffff16815260200190815260200160002054612e7590919063ffffffff16565b6000808473ffffffffffffffffffffffffffffffffffffffff1673ffffffffffffffffffffffffffffffffffffffff16815260200190815260200160002081905550600073ffffffffffffffffffffffffffffffffffffffff168273ffffffffffffffffffffffffffffffffffffffff167fddf252ad1be2c89b69c2b068fc378daa952ba7f163c4a11628f55a4df523b3ef836040518082815260200191505060405180910390a35050565b600082600201548210158015613f02575082600301548211155b905092915050565b600060016002811115613f1957fe5b8260030160009054906101000a900460ff166002811115613f3657fe5b149050919050565b6000806000841415613f535760009150613f75565b8284029050828482811515613f6457fe5b04141515613f7157600080fd5b8091505b5092915050565b600080600083111515613f8e57600080fd5b8284811515613f9957fe5b0490508091505092915050565b608060405190810160405280600073ffffffffffffffffffffffffffffffffffffffff168152602001600081526020016000815260200160006002811115613fea57fe5b81525090565b81548183558181111561401d5760090281600902836000526020600020918201910161401c9190614022565b5b505050565b61409591905b80821115614091576000808201600080820160009055600182016000905560028201600090556003820160009055600482016000905560058201600090555050600682016000905560078201600090556008820160006140889190614098565b50600901614028565b5090565b90565b50805460008255600402906000526020600020908101906140b991906140bc565b50565b61412391905b8082111561411f57600080820160006101000a81549073ffffffffffffffffffffffffffffffffffffffff0219169055600182016000905560028201600090556003820160006101000a81549060ff0219169055506004016140c2565b5090565b905600a165627a7a723058202be0a27c7f12d72751187077b12f52343a46b30d4c005ff930e17b4c00cc7c110029",
  "source": "pragma solidity ^0.4.24;\n\nimport \"openzeppelin-solidity/contracts/token/ERC20/ERC20.sol\";\nimport \"openzeppelin-solidity/contracts/token/ERC20/ERC20Detailed.sol\";\nimport \"openzeppelin-solidity/contracts/token/ERC20/ERC20Burnable.sol\";\nimport \"openzeppelin-solidity/contracts/math/SafeMath.sol\";\n\nimport \"./StageTime.sol\";\nimport \"./Investor.sol\";\nimport \"./StringTools.sol\";\n\ncontract StagesToken is ERC20, ERC20Detailed, ERC20Burnable {\n    using SafeMath for uint;\n\n    address private _item;                 // ()\n\n    Stage[] private _stages;               // \n    uint256 private _currentStageIdx;      // Idx\n\n    struct Stage {\n        StageTime.StageTime_ stageTime;  // \n        uint256 changeRate;              // token (), : 1:1000,ABS1000token\n        uint256 targetAgreeRate;         // agree, :0-100\n        Investor.Investor_[] investors;  // \n    }\n\n    modifier onlyInvestor() {\n        require(msg.sender != _item, \"only investor\");\n        _;\n    }\n\n    modifier onlyItem() {\n        require(msg.sender == _item, \"only item\");\n        _;\n    }\n\n    modifier onlyInSaleTime() {\n        require(StageTime.isInSale(_stages[_currentStageIdx].stageTime, now), \"only in sale time\");\n        _;\n    }\n\n    modifier onlyInVoteTime() {\n        require(StageTime.isInVote(_stages[_currentStageIdx].stageTime, now), \"only in vote time\");\n        _;\n    }\n\n    // \n    function Item() public view\n    returns (address){\n        return _item;\n    }\n\n    // token\n    function ItemBalance() public view\n    returns (uint256) {\n        return balanceOf(_item);\n    }\n\n    // \n    function StagesLen() public view\n    returns (uint256){\n        return _stages.length;\n    }\n\n    // Idx\n    function CurrentStageIdx() public view\n    returns (uint256) {\n        return _currentStageIdx;\n    }\n\n    // \n    function GetStages(uint256 idx) public view\n    returns (string) {\n        require(idx < _stages.length, \"index out of range\");\n\n        string memory str = \"\";\n        str = StringTools.appendUintToString(str, _stages[idx].stageTime.saleBeginTime);\n        str = StringTools.concat(str, \"|\");\n        str = StringTools.appendUintToString(str, _stages[idx].stageTime.saleEndTime);\n        str = StringTools.concat(str, \"|\");\n        str = StringTools.appendUintToString(str, _stages[idx].stageTime.lockBeginTime);\n        str = StringTools.concat(str, \"|\");\n        str = StringTools.appendUintToString(str, _stages[idx].stageTime.lockEndTime);\n        str = StringTools.concat(str, \"|\");\n        str = StringTools.appendUintToString(str, _stages[idx].stageTime.voteBeginTime);\n        str = StringTools.concat(str, \"|\");\n        str = StringTools.appendUintToString(str, _stages[idx].stageTime.voteEndTime);\n        str = StringTools.concat(str, \"|\");\n        str = StringTools.appendUintToString(str, _stages[idx].changeRate);\n        str = StringTools.concat(str, \"|\");\n        str = StringTools.appendUintToString(str, _stages[idx].targetAgreeRate);\n        str = StringTools.concat(str, \"|\");\n        str = StringTools.appendUintToString(str, _stages[idx].investors.length);\n\n        return str;\n    }\n\n\n    // \n    function GetStageInvestor(uint256 stageIdx, uint256 investorIdx) public view\n    returns (address, string) {\n        require(stageIdx < _stages.length, \"index out of range\");\n\n        Stage storage curStage = _stages[stageIdx];\n        require(investorIdx < curStage.investors.length, \"index out of range\");\n\n        Investor.Investor_ storage curInvestor = curStage.investors[investorIdx];\n\n        string memory str = \"\";\n        str = StringTools.appendUintToString(str, curInvestor.investABSNum);\n        str = StringTools.concat(str, \"|\");\n        str = StringTools.appendUintToString(str, curInvestor.itemTokenNum);\n        str = StringTools.concat(str, \"|\");\n        str = StringTools.appendUintToString(str, Investor.GetStateInt(curInvestor));\n        return (curInvestor.id, str);\n    }\n\n    // \n    function AppendStage(\n        uint256 saleBeginTime, uint256 saleEndTime,\n        uint256 lockBeginTime, uint256 lockEndTime,\n        uint256 voteBeginTime, uint256 voteEndTime,\n        uint256 changeRate, uint256 targetAgreeRate) public {\n\n\n        uint256 nextStageIdx = _stages.length;\n        _stages.length++;\n\n        _stages[nextStageIdx].changeRate = changeRate;\n        _stages[nextStageIdx].targetAgreeRate = targetAgreeRate;\n        _stages[nextStageIdx].stageTime.saleBeginTime = saleBeginTime;\n        _stages[nextStageIdx].stageTime.saleEndTime = saleEndTime;\n        _stages[nextStageIdx].stageTime.lockBeginTime = lockBeginTime;\n        _stages[nextStageIdx].stageTime.lockEndTime = lockEndTime;\n        _stages[nextStageIdx].stageTime.voteBeginTime = voteBeginTime;\n        _stages[nextStageIdx].stageTime.voteEndTime = voteEndTime;\n\n    }\n\n    // \n    function SwitchStage() public {\n        uint256 i = _currentStageIdx;\n        for (; i < _stages.length; i++) {\n            if (StageTime.isInSale(_stages[i].stageTime, now)) {\n                break;\n            }\n        }\n        if (i != _currentStageIdx && i < _stages.length) {\n            _currentStageIdx = i;\n        }\n    }\n\n    // : ABS\n    function Invest() public payable onlyInvestor onlyInSaleTime {\n        Stage storage curStage = _stages[_currentStageIdx];\n        (bool exist, uint256 idx) = Investor.findInIdx(curStage.investors, msg.sender);\n\n        // 1. A. token B. token\n        uint256 rateTokenNum = calcRateToken(msg.value, curStage.changeRate);\n        require(rateTokenNum <= _balances[_item], \"item balance not enough\");\n        _balances[_item] = _balances[_item].sub(rateTokenNum);\n\n        // 2. A. ABS B. ABS\n        if (exist) {\n            Investor.Investor_ storage curInvestor = curStage.investors[idx];\n            Investor.appendInvest(curInvestor, msg.value, rateTokenNum);\n        } else {\n            Investor.Investor_ memory investor = Investor.newInvestor(msg.sender, msg.value, rateTokenNum);\n            curStage.investors.push(investor);\n        }\n    }\n\n    // :  0=,=\n    function Vote(uint256 isAgree) public onlyInvestor onlyInVoteTime {\n        Stage storage curStage = _stages[_currentStageIdx];\n\n        // \n        (bool exist, uint256 idx) = Investor.findInIdx(curStage.investors, msg.sender);\n        require(exist, \"investor did not participate in the invest\");\n\n        Investor.Investor_ storage curInvestor = curStage.investors[idx];\n\n        // \n        require(!Investor.isVoted(curInvestor), \"investor have participate in the vote\");\n\n        if (isAgree == 0) {\n            Investor.vote(curInvestor, false);\n        } else {\n            Investor.vote(curInvestor, true);\n        }\n    }\n\n    // : () token\n    function InvestorWithdrawToken() public onlyInvestor {\n        for (uint256 i = 0; i < _stages.length; i++) {\n            if (!StageTime.isEnd(_stages[i].stageTime, now)) {\n                continue;\n            }\n            if (Investor.isVoteAgreeAchieveTarget(_stages[i].investors, _stages[i].targetAgreeRate)) {\n                Investor.investorWithdrawToken(_stages[i].investors, msg.sender, addSendersToken);\n            }\n        }\n    }\n\n    // : () ABS\n    function InvestorWithdrawAbs() public onlyInvestor {\n        for (uint256 i = 0; i < _stages.length; i++) {\n            if (!StageTime.isEnd(_stages[i].stageTime, now)) {\n                continue;\n            }\n            if (!Investor.isVoteAgreeAchieveTarget(_stages[i].investors, _stages[i].targetAgreeRate)) {\n                Investor.investorWithdrawABS(_stages[i].investors, msg.sender, addSendersABS);\n            }\n        }\n    }\n\n    // : () ABS\n    function ItemWithdrawABS() public onlyItem {\n        for (uint256 i = 0; i < _stages.length; i++) {\n            if (!StageTime.isEnd(_stages[i].stageTime, now)) {\n                continue;\n            }\n            if (Investor.isVoteAgreeAchieveTarget(_stages[i].investors, _stages[i].targetAgreeRate)) {\n                Investor.itemWithdrawABS(_stages[i].investors, addSendersABS);\n            }\n        }\n    }\n\n    // : () token\n    function ItemWithdrawToken() public onlyItem {\n        for (uint256 i = 0; i < _stages.length; i++) {\n            if (!StageTime.isEnd(_stages[i].stageTime, now)) {\n                continue;\n            }\n            if (!Investor.isVoteAgreeAchieveTarget(_stages[i].investors, _stages[i].targetAgreeRate)) {\n                Investor.itemWithdrawToken(_stages[i].investors, addSendersToken);\n            }\n        }\n    }\n\n    // ABS -> token ()\n    function calcRateToken(uint256 ABSNum, uint256 changeRate) private pure\n    returns (uint256){\n        return ABSNum.mul(changeRate);\n    }\n\n    // token\n    function addSendersToken(uint256 tokenNum) private {\n        _balances[msg.sender] = _balances[msg.sender].add(tokenNum);\n    }\n\n    // ABS\n    function addSendersABS(uint256 ABSNum) private {\n        msg.sender.transfer(ABSNum);\n    }\n\n    constructor (\n        string name,\n        string symbol,\n        uint8 decimals,\n        uint256 totalSupply\n    )\n    ERC20Burnable()\n    ERC20Detailed(name, symbol, decimals)\n    ERC20()\n    public {\n        _totalSupply = totalSupply * (10 ** uint256(decimals));\n        _item = msg.sender;\n        _balances[_item] = _totalSupply;\n\n        // \n        _currentStageIdx = 0;\n    }\n}\n",
  "sourcePath": "/mnt/disk1/linux/reference/test/testsol/stages/contracts/StagesToken.sol",
  "compiler": {
    "name": "solc",
    "version": "0.4.24+commit.e67f0147.Emscripten.clang"
  },
  "schemaVersion": "2.0.1",
  "updatedAt": "2018-09-15T01:02:16.119Z"
}