{
  "contractName": "StagesToken",
  "abi": [
    {
      "constant": true,
      "inputs": [],
      "name": "name",
      "outputs": [
        {
          "name": "",
          "type": "string"
        }
      ],
      "payable": false,
      "stateMutability": "view",
      "type": "function"
    },
    {
      "constant": false,
      "inputs": [
        {
          "name": "spender",
          "type": "address"
        },
        {
          "name": "value",
          "type": "uint256"
        }
      ],
      "name": "approve",
      "outputs": [
        {
          "name": "",
          "type": "bool"
        }
      ],
      "payable": false,
      "stateMutability": "nonpayable",
      "type": "function"
    },
    {
      "constant": true,
      "inputs": [],
      "name": "totalSupply",
      "outputs": [
        {
          "name": "",
          "type": "uint256"
        }
      ],
      "payable": false,
      "stateMutability": "view",
      "type": "function"
    },
    {
      "constant": false,
      "inputs": [
        {
          "name": "from",
          "type": "address"
        },
        {
          "name": "to",
          "type": "address"
        },
        {
          "name": "value",
          "type": "uint256"
        }
      ],
      "name": "transferFrom",
      "outputs": [
        {
          "name": "",
          "type": "bool"
        }
      ],
      "payable": false,
      "stateMutability": "nonpayable",
      "type": "function"
    },
    {
      "constant": true,
      "inputs": [],
      "name": "decimals",
      "outputs": [
        {
          "name": "",
          "type": "uint8"
        }
      ],
      "payable": false,
      "stateMutability": "view",
      "type": "function"
    },
    {
      "constant": false,
      "inputs": [
        {
          "name": "spender",
          "type": "address"
        },
        {
          "name": "addedValue",
          "type": "uint256"
        }
      ],
      "name": "increaseAllowance",
      "outputs": [
        {
          "name": "",
          "type": "bool"
        }
      ],
      "payable": false,
      "stateMutability": "nonpayable",
      "type": "function"
    },
    {
      "constant": false,
      "inputs": [
        {
          "name": "value",
          "type": "uint256"
        }
      ],
      "name": "burn",
      "outputs": [],
      "payable": false,
      "stateMutability": "nonpayable",
      "type": "function"
    },
    {
      "constant": true,
      "inputs": [
        {
          "name": "owner",
          "type": "address"
        }
      ],
      "name": "balanceOf",
      "outputs": [
        {
          "name": "",
          "type": "uint256"
        }
      ],
      "payable": false,
      "stateMutability": "view",
      "type": "function"
    },
    {
      "constant": false,
      "inputs": [
        {
          "name": "from",
          "type": "address"
        },
        {
          "name": "value",
          "type": "uint256"
        }
      ],
      "name": "burnFrom",
      "outputs": [],
      "payable": false,
      "stateMutability": "nonpayable",
      "type": "function"
    },
    {
      "constant": true,
      "inputs": [],
      "name": "_currentStageIdx",
      "outputs": [
        {
          "name": "",
          "type": "uint256"
        }
      ],
      "payable": false,
      "stateMutability": "view",
      "type": "function"
    },
    {
      "constant": true,
      "inputs": [
        {
          "name": "",
          "type": "uint256"
        }
      ],
      "name": "_stages",
      "outputs": [
        {
          "name": "changeRate",
          "type": "uint256"
        },
        {
          "name": "targetAgreeRate",
          "type": "uint256"
        },
        {
          "components": [
            {
              "name": "saleBeginTime",
              "type": "uint256"
            },
            {
              "name": "saleEndTime",
              "type": "uint256"
            },
            {
              "name": "lockBeginTime",
              "type": "uint256"
            },
            {
              "name": "lockEndTime",
              "type": "uint256"
            },
            {
              "name": "voteBeginTime",
              "type": "uint256"
            },
            {
              "name": "voteEndTime",
              "type": "uint256"
            }
          ],
          "name": "stageTime",
          "type": "tuple"
        }
      ],
      "payable": false,
      "stateMutability": "view",
      "type": "function"
    },
    {
      "constant": true,
      "inputs": [],
      "name": "symbol",
      "outputs": [
        {
          "name": "",
          "type": "string"
        }
      ],
      "payable": false,
      "stateMutability": "view",
      "type": "function"
    },
    {
      "constant": false,
      "inputs": [
        {
          "name": "spender",
          "type": "address"
        },
        {
          "name": "subtractedValue",
          "type": "uint256"
        }
      ],
      "name": "decreaseAllowance",
      "outputs": [
        {
          "name": "",
          "type": "bool"
        }
      ],
      "payable": false,
      "stateMutability": "nonpayable",
      "type": "function"
    },
    {
      "constant": false,
      "inputs": [
        {
          "name": "to",
          "type": "address"
        },
        {
          "name": "value",
          "type": "uint256"
        }
      ],
      "name": "transfer",
      "outputs": [
        {
          "name": "",
          "type": "bool"
        }
      ],
      "payable": false,
      "stateMutability": "nonpayable",
      "type": "function"
    },
    {
      "constant": true,
      "inputs": [],
      "name": "_owner",
      "outputs": [
        {
          "name": "",
          "type": "address"
        }
      ],
      "payable": false,
      "stateMutability": "view",
      "type": "function"
    },
    {
      "constant": true,
      "inputs": [
        {
          "name": "owner",
          "type": "address"
        },
        {
          "name": "spender",
          "type": "address"
        }
      ],
      "name": "allowance",
      "outputs": [
        {
          "name": "",
          "type": "uint256"
        }
      ],
      "payable": false,
      "stateMutability": "view",
      "type": "function"
    },
    {
      "inputs": [
        {
          "name": "name",
          "type": "string"
        },
        {
          "name": "symbol",
          "type": "string"
        },
        {
          "name": "decimals",
          "type": "uint8"
        },
        {
          "name": "totalSupply",
          "type": "uint256"
        }
      ],
      "payable": false,
      "stateMutability": "nonpayable",
      "type": "constructor"
    },
    {
      "anonymous": false,
      "inputs": [
        {
          "indexed": true,
          "name": "from",
          "type": "address"
        },
        {
          "indexed": true,
          "name": "to",
          "type": "address"
        },
        {
          "indexed": false,
          "name": "value",
          "type": "uint256"
        }
      ],
      "name": "Transfer",
      "type": "event"
    },
    {
      "anonymous": false,
      "inputs": [
        {
          "indexed": true,
          "name": "owner",
          "type": "address"
        },
        {
          "indexed": true,
          "name": "spender",
          "type": "address"
        },
        {
          "indexed": false,
          "name": "value",
          "type": "uint256"
        }
      ],
      "name": "Approval",
      "type": "event"
    },
    {
      "constant": false,
      "inputs": [],
      "name": "SwitchStage",
      "outputs": [],
      "payable": false,
      "stateMutability": "nonpayable",
      "type": "function"
    },
    {
      "constant": false,
      "inputs": [],
      "name": "Invest",
      "outputs": [],
      "payable": true,
      "stateMutability": "payable",
      "type": "function"
    },
    {
      "constant": false,
      "inputs": [
        {
          "name": "isAgree",
          "type": "uint256"
        }
      ],
      "name": "Vote",
      "outputs": [],
      "payable": false,
      "stateMutability": "nonpayable",
      "type": "function"
    },
    {
      "constant": false,
      "inputs": [],
      "name": "InvestorWithdrawToken",
      "outputs": [],
      "payable": false,
      "stateMutability": "nonpayable",
      "type": "function"
    },
    {
      "constant": false,
      "inputs": [],
      "name": "WithdrawABS",
      "outputs": [],
      "payable": false,
      "stateMutability": "nonpayable",
      "type": "function"
    }
  ],
  "bytecode": "0x60806040523480156200001157600080fd5b506040516200272c3803806200272c833981018060405281019080805182019291906020018051820192919060200180519060200190929190805190602001909291905050508383838260039080519060200190620000729291906200016b565b5081600490805190602001906200008b9291906200016b565b5080600560006101000a81548160ff021916908360ff1602179055505050508160ff16600a0a810260028190555033600560016101000a81548173ffffffffffffffffffffffffffffffffffffffff021916908373ffffffffffffffffffffffffffffffffffffffff160217905550600254600080600560019054906101000a900473ffffffffffffffffffffffffffffffffffffffff1673ffffffffffffffffffffffffffffffffffffffff1673ffffffffffffffffffffffffffffffffffffffff16815260200190815260200160002081905550505050506200021a565b828054600181600116156101000203166002900490600052602060002090601f016020900481019282601f10620001ae57805160ff1916838001178555620001df565b82800160010185558215620001df579182015b82811115620001de578251825591602001919060010190620001c1565b5b509050620001ee9190620001f2565b5090565b6200021791905b8082111562000213576000816000905550600101620001f9565b5090565b90565b612502806200022a6000396000f30060806040526004361061011d576000357c0100000000000000000000000000000000000000000000000000000000900463ffffffff16806306fdde0314610122578063095ea7b3146101b257806318160ddd1461021757806321ea32d61461024257806323b872dd14610259578063313ce567146102de578063395093511461030f57806342966c681461037457806367053f36146103a157806370a08231146103b857806379cc67901461040f5780637fa330e51461045c5780639294d09f14610473578063953a25e61461049e57806395d89b41146104ed578063a457c2d71461057d578063a9059cbb146105e2578063b2bdfa7b14610647578063c08199611461069e578063dcd6a5cd146106a8578063dd62ed3e146106d5575b600080fd5b34801561012e57600080fd5b5061013761074c565b6040518080602001828103825283818151815260200191508051906020019080838360005b8381101561017757808201518184015260208101905061015c565b50505050905090810190601f1680156101a45780820380516001836020036101000a031916815260200191505b509250505060405180910390f35b3480156101be57600080fd5b506101fd600480360381019080803573ffffffffffffffffffffffffffffffffffffffff169060200190929190803590602001909291905050506107ee565b604051808215151515815260200191505060405180910390f35b34801561022357600080fd5b5061022c61091b565b6040518082815260200191505060405180910390f35b34801561024e57600080fd5b50610257610925565b005b34801561026557600080fd5b506102c4600480360381019080803573ffffffffffffffffffffffffffffffffffffffff169060200190929190803573ffffffffffffffffffffffffffffffffffffffff169060200190929190803590602001909291905050506109a0565b604051808215151515815260200191505060405180910390f35b3480156102ea57600080fd5b506102f3610d5b565b604051808260ff1660ff16815260200191505060405180910390f35b34801561031b57600080fd5b5061035a600480360381019080803573ffffffffffffffffffffffffffffffffffffffff16906020019092919080359060200190929190505050610d72565b604051808215151515815260200191505060405180910390f35b34801561038057600080fd5b5061039f60048036038101908080359060200190929190505050610fa9565b005b3480156103ad57600080fd5b506103b6610fb6565b005b3480156103c457600080fd5b506103f9600480360381019080803573ffffffffffffffffffffffffffffffffffffffff16906020019092919050505061109a565b6040518082815260200191505060405180910390f35b34801561041b57600080fd5b5061045a600480360381019080803573ffffffffffffffffffffffffffffffffffffffff169060200190929190803590602001909291905050506110e2565b005b34801561046857600080fd5b506104716110f0565b005b34801561047f57600080fd5b50610488611184565b6040518082815260200191505060405180910390f35b3480156104aa57600080fd5b506104c96004803603810190808035906020019092919050505061118a565b60405180848152602001838152602001828152602001935050505060405180910390f35b3480156104f957600080fd5b5061050261120a565b6040518080602001828103825283818151815260200191508051906020019080838360005b83811015610542578082015181840152602081019050610527565b50505050905090810190601f16801561056f5780820380516001836020036101000a031916815260200191505b509250505060405180910390f35b34801561058957600080fd5b506105c8600480360381019080803573ffffffffffffffffffffffffffffffffffffffff169060200190929190803590602001909291905050506112ac565b604051808215151515815260200191505060405180910390f35b3480156105ee57600080fd5b5061062d600480360381019080803573ffffffffffffffffffffffffffffffffffffffff169060200190929190803590602001909291905050506114e3565b604051808215151515815260200191505060405180910390f35b34801561065357600080fd5b5061065c611703565b604051808273ffffffffffffffffffffffffffffffffffffffff1673ffffffffffffffffffffffffffffffffffffffff16815260200191505060405180910390f35b6106a6611729565b005b3480156106b457600080fd5b506106d360048036038101908080359060200190929190505050611a2e565b005b3480156106e157600080fd5b50610736600480360381019080803573ffffffffffffffffffffffffffffffffffffffff169060200190929190803573ffffffffffffffffffffffffffffffffffffffff169060200190929190505050611b0a565b6040518082815260200191505060405180910390f35b606060038054600181600116156101000203166002900480601f0160208091040260200160405190810160405280929190818152602001828054600181600116156101000203166002900480156107e45780601f106107b9576101008083540402835291602001916107e4565b820191906000526020600020905b8154815290600101906020018083116107c757829003601f168201915b5050505050905090565b60008073ffffffffffffffffffffffffffffffffffffffff168373ffffffffffffffffffffffffffffffffffffffff161415151561082b57600080fd5b81600160003373ffffffffffffffffffffffffffffffffffffffff1673ffffffffffffffffffffffffffffffffffffffff16815260200190815260200160002060008573ffffffffffffffffffffffffffffffffffffffff1673ffffffffffffffffffffffffffffffffffffffff168152602001908152602001600020819055508273ffffffffffffffffffffffffffffffffffffffff163373ffffffffffffffffffffffffffffffffffffffff167f8c5be1e5ebec7d5bd14f71427d1e84f3dd0314c0f7b2291e5b200ac8c7c3b925846040518082815260200191505060405180910390a36001905092915050565b6000600254905090565b600060075490505b60068054905081101561097a5761096360068281548110151561094c57fe5b906000526020600020906009020160020142611b91565b1561096d5761097a565b808060010191505061092d565b6007548114158015610990575060068054905081105b1561099d57806007819055505b50565b60008060008573ffffffffffffffffffffffffffffffffffffffff1673ffffffffffffffffffffffffffffffffffffffff1681526020019081526020016000205482111515156109ef57600080fd5b600160008573ffffffffffffffffffffffffffffffffffffffff1673ffffffffffffffffffffffffffffffffffffffff16815260200190815260200160002060003373ffffffffffffffffffffffffffffffffffffffff1673ffffffffffffffffffffffffffffffffffffffff168152602001908152602001600020548211151515610a7a57600080fd5b600073ffffffffffffffffffffffffffffffffffffffff168373ffffffffffffffffffffffffffffffffffffffff1614151515610ab657600080fd5b610b07826000808773ffffffffffffffffffffffffffffffffffffffff1673ffffffffffffffffffffffffffffffffffffffff16815260200190815260200160002054611bb390919063ffffffff16565b6000808673ffffffffffffffffffffffffffffffffffffffff1673ffffffffffffffffffffffffffffffffffffffff16815260200190815260200160002081905550610b9a826000808673ffffffffffffffffffffffffffffffffffffffff1673ffffffffffffffffffffffffffffffffffffffff16815260200190815260200160002054611bd490919063ffffffff16565b6000808573ffffffffffffffffffffffffffffffffffffffff1673ffffffffffffffffffffffffffffffffffffffff16815260200190815260200160002081905550610c6b82600160008773ffffffffffffffffffffffffffffffffffffffff1673ffffffffffffffffffffffffffffffffffffffff16815260200190815260200160002060003373ffffffffffffffffffffffffffffffffffffffff1673ffffffffffffffffffffffffffffffffffffffff16815260200190815260200160002054611bb390919063ffffffff16565b600160008673ffffffffffffffffffffffffffffffffffffffff1673ffffffffffffffffffffffffffffffffffffffff16815260200190815260200160002060003373ffffffffffffffffffffffffffffffffffffffff1673ffffffffffffffffffffffffffffffffffffffff168152602001908152602001600020819055508273ffffffffffffffffffffffffffffffffffffffff168473ffffffffffffffffffffffffffffffffffffffff167fddf252ad1be2c89b69c2b068fc378daa952ba7f163c4a11628f55a4df523b3ef846040518082815260200191505060405180910390a3600190509392505050565b6000600560009054906101000a900460ff16905090565b60008073ffffffffffffffffffffffffffffffffffffffff168373ffffffffffffffffffffffffffffffffffffffff1614151515610daf57600080fd5b610e3e82600160003373ffffffffffffffffffffffffffffffffffffffff1673ffffffffffffffffffffffffffffffffffffffff16815260200190815260200160002060008673ffffffffffffffffffffffffffffffffffffffff1673ffffffffffffffffffffffffffffffffffffffff16815260200190815260200160002054611bd490919063ffffffff16565b600160003373ffffffffffffffffffffffffffffffffffffffff1673ffffffffffffffffffffffffffffffffffffffff16815260200190815260200160002060008573ffffffffffffffffffffffffffffffffffffffff1673ffffffffffffffffffffffffffffffffffffffff168152602001908152602001600020819055508273ffffffffffffffffffffffffffffffffffffffff163373ffffffffffffffffffffffffffffffffffffffff167f8c5be1e5ebec7d5bd14f71427d1e84f3dd0314c0f7b2291e5b200ac8c7c3b925600160003373ffffffffffffffffffffffffffffffffffffffff1673ffffffffffffffffffffffffffffffffffffffff16815260200190815260200160002060008773ffffffffffffffffffffffffffffffffffffffff1673ffffffffffffffffffffffffffffffffffffffff168152602001908152602001600020546040518082815260200191505060405180910390a36001905092915050565b610fb33382611bf5565b50565b6000610fe36006600754815481101515610fcc57fe5b906000526020600020906009020160020142611c03565b1515610fee57600080fd5b600560019054906101000a900473ffffffffffffffffffffffffffffffffffffffff1673ffffffffffffffffffffffffffffffffffffffff163373ffffffffffffffffffffffffffffffffffffffff161415151561104b57600080fd5b600660075481548110151561105c57fe5b9060005260206000209060090201905061107d816008018260010154611c4a565b151561108857600080fd5b61109781600801611cf3611d8a565b50565b60008060008373ffffffffffffffffffffffffffffffffffffffff1673ffffffffffffffffffffffffffffffffffffffff168152602001908152602001600020549050919050565b6110ec8282611e8e565b5050565b61111b600660075481548110151561110457fe5b906000526020600020906009020160020142611c03565b151561112657600080fd5b600560019054906101000a900473ffffffffffffffffffffffffffffffffffffffff1673ffffffffffffffffffffffffffffffffffffffff163373ffffffffffffffffffffffffffffffffffffffff1614151561118257600080fd5b565b60075481565b60068181548110151561119957fe5b90600052602060002090600902016000915090508060000154908060010154908060020160c060405190810160405290816000820154815260200160018201548152602001600282015481526020016003820154815260200160048201548152602001600582015481525050905083565b606060048054600181600116156101000203166002900480601f0160208091040260200160405190810160405280929190818152602001828054600181600116156101000203166002900480156112a25780601f10611277576101008083540402835291602001916112a2565b820191906000526020600020905b81548152906001019060200180831161128557829003601f168201915b5050505050905090565b60008073ffffffffffffffffffffffffffffffffffffffff168373ffffffffffffffffffffffffffffffffffffffff16141515156112e957600080fd5b61137882600160003373ffffffffffffffffffffffffffffffffffffffff1673ffffffffffffffffffffffffffffffffffffffff16815260200190815260200160002060008673ffffffffffffffffffffffffffffffffffffffff1673ffffffffffffffffffffffffffffffffffffffff16815260200190815260200160002054611bb390919063ffffffff16565b600160003373ffffffffffffffffffffffffffffffffffffffff1673ffffffffffffffffffffffffffffffffffffffff16815260200190815260200160002060008573ffffffffffffffffffffffffffffffffffffffff1673ffffffffffffffffffffffffffffffffffffffff168152602001908152602001600020819055508273ffffffffffffffffffffffffffffffffffffffff163373ffffffffffffffffffffffffffffffffffffffff167f8c5be1e5ebec7d5bd14f71427d1e84f3dd0314c0f7b2291e5b200ac8c7c3b925600160003373ffffffffffffffffffffffffffffffffffffffff1673ffffffffffffffffffffffffffffffffffffffff16815260200190815260200160002060008773ffffffffffffffffffffffffffffffffffffffff1673ffffffffffffffffffffffffffffffffffffffff168152602001908152602001600020546040518082815260200191505060405180910390a36001905092915050565b60008060003373ffffffffffffffffffffffffffffffffffffffff1673ffffffffffffffffffffffffffffffffffffffff16815260200190815260200160002054821115151561153257600080fd5b600073ffffffffffffffffffffffffffffffffffffffff168373ffffffffffffffffffffffffffffffffffffffff161415151561156e57600080fd5b6115bf826000803373ffffffffffffffffffffffffffffffffffffffff1673ffffffffffffffffffffffffffffffffffffffff16815260200190815260200160002054611bb390919063ffffffff16565b6000803373ffffffffffffffffffffffffffffffffffffffff1673ffffffffffffffffffffffffffffffffffffffff16815260200190815260200160002081905550611652826000808673ffffffffffffffffffffffffffffffffffffffff1673ffffffffffffffffffffffffffffffffffffffff16815260200190815260200160002054611bd490919063ffffffff16565b6000808573ffffffffffffffffffffffffffffffffffffffff1673ffffffffffffffffffffffffffffffffffffffff168152602001908152602001600020819055508273ffffffffffffffffffffffffffffffffffffffff163373ffffffffffffffffffffffffffffffffffffffff167fddf252ad1be2c89b69c2b068fc378daa952ba7f163c4a11628f55a4df523b3ef846040518082815260200191505060405180910390a36001905092915050565b600560019054906101000a900473ffffffffffffffffffffffffffffffffffffffff1681565b600080600080600061173961248c565b611764600660075481548110151561174d57fe5b906000526020600020906009020160020142611b91565b151561176f57600080fd5b600660075481548110151561178057fe5b9060005260206000209060090201955061179d8660080133612036565b945094506117af3487600001546120ea565b9250600080600560019054906101000a900473ffffffffffffffffffffffffffffffffffffffff1673ffffffffffffffffffffffffffffffffffffffff1673ffffffffffffffffffffffffffffffffffffffff16815260200190815260200160002054831115151561182057600080fd5b61189383600080600560019054906101000a900473ffffffffffffffffffffffffffffffffffffffff1673ffffffffffffffffffffffffffffffffffffffff1673ffffffffffffffffffffffffffffffffffffffff16815260200190815260200160002054611bb390919063ffffffff16565b600080600560019054906101000a900473ffffffffffffffffffffffffffffffffffffffff1673ffffffffffffffffffffffffffffffffffffffff1673ffffffffffffffffffffffffffffffffffffffff16815260200190815260200160002081905550841561196157856008018481548110151561190e57fe5b90600052602060002090600402019150611935348360010154611bd490919063ffffffff16565b8260010181905550611954838360020154611bd490919063ffffffff16565b8260020181905550611a26565b61196c333485612107565b905085600801819080600181540180825580915050906001820390600052602060002090600402016000909192909190915060008201518160000160006101000a81548173ffffffffffffffffffffffffffffffffffffffff021916908373ffffffffffffffffffffffffffffffffffffffff160217905550602082015181600101556040820151816002015560608201518160030160006101000a81548160ff02191690836002811115611a1d57fe5b02179055505050505b505050505050565b600080600080611a5f6006600754815481101515611a4857fe5b906000526020600020906009020160020142612191565b1515611a6a57600080fd5b6006600754815481101515611a7b57fe5b90600052602060002090600902019350611a988460080133612036565b92509250821515611aa857600080fd5b8360080182815481101515611ab957fe5b90600052602060002090600402019050611ad2816121b3565b151515611ade57600080fd5b6000851415611af757611af28160006121e7565b611b03565b611b028160016121e7565b5b5050505050565b6000600160008473ffffffffffffffffffffffffffffffffffffffff1673ffffffffffffffffffffffffffffffffffffffff16815260200190815260200160002060008373ffffffffffffffffffffffffffffffffffffffff1673ffffffffffffffffffffffffffffffffffffffff16815260200190815260200160002054905092915050565b600082600001548210158015611bab575082600101548211155b905092915050565b600080838311151515611bc557600080fd5b82840390508091505092915050565b6000808284019050838110151515611beb57600080fd5b8091505092915050565b611bff8282612243565b5050565b6000611c0f8383611b91565b80611c205750611c1f83836123ce565b5b80611c315750611c308383612191565b5b15611c3f5760009050611c44565b600190505b92915050565b60008060008060009250600091505b8580549050821015611ca457611c898683815481101515611c7657fe5b90600052602060002090600402016123f0565b15611c975782806001019350505b8180600101925050611c59565b611ccf8680549050611cc16127108661242490919063ffffffff16565b61246290919063ffffffff16565b9050611ce560648661242490919063ffffffff16565b811015935050505092915050565b611d44816000808573ffffffffffffffffffffffffffffffffffffffff1673ffffffffffffffffffffffffffffffffffffffff16815260200190815260200160002054611bd490919063ffffffff16565b6000808473ffffffffffffffffffffffffffffffffffffffff1673ffffffffffffffffffffffffffffffffffffffff168152602001908152602001600020819055505050565b60008090505b8280549050811015611e8957611e088382815481101515611dad57fe5b906000526020600020906004020160000160009054906101000a900473ffffffffffffffffffffffffffffffffffffffff168483815481101515611ded57fe5b9060005260206000209060040201600201548463ffffffff16565b611e598382815481101515611e1957fe5b9060005260206000209060040201600201548483815481101515611e3957fe5b906000526020600020906004020160020154611bb390919063ffffffff16565b8382815481101515611e6757fe5b9060005260206000209060040201600201819055508080600101915050611d90565b505050565b600160008373ffffffffffffffffffffffffffffffffffffffff1673ffffffffffffffffffffffffffffffffffffffff16815260200190815260200160002060003373ffffffffffffffffffffffffffffffffffffffff1673ffffffffffffffffffffffffffffffffffffffff168152602001908152602001600020548111151515611f1957600080fd5b611fa881600160008573ffffffffffffffffffffffffffffffffffffffff1673ffffffffffffffffffffffffffffffffffffffff16815260200190815260200160002060003373ffffffffffffffffffffffffffffffffffffffff1673ffffffffffffffffffffffffffffffffffffffff16815260200190815260200160002054611bb390919063ffffffff16565b600160008473ffffffffffffffffffffffffffffffffffffffff1673ffffffffffffffffffffffffffffffffffffffff16815260200190815260200160002060003373ffffffffffffffffffffffffffffffffffffffff1673ffffffffffffffffffffffffffffffffffffffff168152602001908152602001600020819055506120328282611bf5565b5050565b60008060008090505b84805490508110156120d7578373ffffffffffffffffffffffffffffffffffffffff16858281548110151561207057fe5b906000526020600020906004020160000160009054906101000a900473ffffffffffffffffffffffffffffffffffffffff1673ffffffffffffffffffffffffffffffffffffffff1614156120ca57600181925092506120e2565b808060010191505061203f565b600080809050925092505b509250929050565b60006120ff828461242490919063ffffffff16565b905092915050565b61210f61248c565b61211761248c565b84816000019073ffffffffffffffffffffffffffffffffffffffff16908173ffffffffffffffffffffffffffffffffffffffff1681525050838160200181815250508281604001818152505060008160600190600281111561217557fe5b9081600281111561218257fe5b81525050809150509392505050565b6000826004015482101580156121ab575082600501548211155b905092915050565b60008060028111156121c157fe5b8260030160009054906101000a900460ff1660028111156121de57fe5b14159050919050565b80156122185760018260030160006101000a81548160ff0219169083600281111561220e57fe5b021790555061223f565b60028260030160006101000a81548160ff0219169083600281111561223957fe5b02179055505b5050565b60008273ffffffffffffffffffffffffffffffffffffffff161415151561226957600080fd5b6000808373ffffffffffffffffffffffffffffffffffffffff1673ffffffffffffffffffffffffffffffffffffffff1681526020019081526020016000205481111515156122b657600080fd5b6122cb81600254611bb390919063ffffffff16565b600281905550612322816000808573ffffffffffffffffffffffffffffffffffffffff1673ffffffffffffffffffffffffffffffffffffffff16815260200190815260200160002054611bb390919063ffffffff16565b6000808473ffffffffffffffffffffffffffffffffffffffff1673ffffffffffffffffffffffffffffffffffffffff16815260200190815260200160002081905550600073ffffffffffffffffffffffffffffffffffffffff168273ffffffffffffffffffffffffffffffffffffffff167fddf252ad1be2c89b69c2b068fc378daa952ba7f163c4a11628f55a4df523b3ef836040518082815260200191505060405180910390a35050565b6000826002015482101580156123e8575082600301548211155b905092915050565b6000600160028111156123ff57fe5b8260030160009054906101000a900460ff16600281111561241c57fe5b149050919050565b6000806000841415612439576000915061245b565b828402905082848281151561244a57fe5b0414151561245757600080fd5b8091505b5092915050565b60008060008311151561247457600080fd5b828481151561247f57fe5b0490508091505092915050565b608060405190810160405280600073ffffffffffffffffffffffffffffffffffffffff1681526020016000815260200160008152602001600060028111156124d057fe5b815250905600a165627a7a72305820ccf2e4281b2bf1bb2ac9527ad34ba86f498448decaddfc9ba6099a9fa7bfb58e0029",
  "source": "pragma solidity ^0.4.24;\n\nimport \"openzeppelin-solidity/contracts/token/ERC20/ERC20.sol\";\nimport \"openzeppelin-solidity/contracts/token/ERC20/ERC20Detailed.sol\";\nimport \"openzeppelin-solidity/contracts/token/ERC20/ERC20Burnable.sol\";\nimport \"openzeppelin-solidity/contracts/math/SafeMath.sol\";\n\nimport \"./StageTime.sol\";\nimport \"./Investor.sol\";\n\ncontract StagesToken is ERC20, ERC20Detailed, ERC20Burnable {\n    using SafeMath for uint;\n\n    address public _owner;               // ()\n\n    Stage[] public _stages;              // \n    uint256 public _currentStageIdx;     // Idx\n\n    struct Stage {\n        uint256 changeRate;              // token (), : 1:1000,ABS1000token\n        uint256 targetAgreeRate;         // agree, :0-100\n        StageTime.StageTime_ stageTime;  // \n        Investor.Investor_[] investors;  // \n    }\n\n    // \n    function SwitchStage() public {\n        uint256 i = _currentStageIdx;\n        for (; i < _stages.length; i++) {\n            if (StageTime.isInSale(_stages[i].stageTime, now)) {\n                break;\n            }\n        }\n        if (i != _currentStageIdx && i < _stages.length) {\n            _currentStageIdx = i;\n        }\n    }\n\n    // : ABS\n    function Invest() public payable {\n        require(StageTime.isInSale(_stages[_currentStageIdx].stageTime, now));\n\n        Stage storage curStage = _stages[_currentStageIdx];\n        (bool exist, uint256 idx) = Investor.findInIdx(curStage.investors, msg.sender);\n\n        // 1. token\n        uint256 newTokenNum = calcRateToken(msg.value, curStage.changeRate);\n        require(newTokenNum <= _balances[_owner]);\n        _balances[_owner] = _balances[_owner].sub(newTokenNum);\n\n        // 2. ABS\n        if (exist) {\n            Investor.Investor_ storage curInvestor = curStage.investors[idx];\n            curInvestor.investABSNum = curInvestor.investABSNum.add(msg.value);\n            curInvestor.ownerTokenNum = curInvestor.ownerTokenNum.add(newTokenNum);\n        } else {\n            Investor.Investor_ memory investor = Investor.newInvestor(msg.sender, msg.value, newTokenNum);\n            curStage.investors.push(investor);\n        }\n    }\n\n    // :  0=,=\n    function Vote(uint256 isAgree) public {\n        require(StageTime.isInVote(_stages[_currentStageIdx].stageTime, now));\n\n        // \n        Stage storage curStage = _stages[_currentStageIdx];\n        (bool exist, uint256 idx) = Investor.findInIdx(curStage.investors, msg.sender);\n        require(exist);\n\n        Investor.Investor_ storage curInvestor = curStage.investors[idx];\n\n        // \n        require(!Investor.isVoted(curInvestor));\n\n        if (isAgree == 0) {\n            Investor.vote(curInvestor, false);\n        } else {\n            Investor.vote(curInvestor, true);\n        }\n    }\n\n    function _addBalance(address id, uint256 tokenNum) private {\n        _balances[id] = _balances[id].add(tokenNum);\n    }\n\n    // : (),token\n    function InvestorWithdrawToken() public {\n        require(StageTime.isEnd(_stages[_currentStageIdx].stageTime, now));\n\n        // \n        require(msg.sender != _owner);\n\n        Stage storage curStage = _stages[_currentStageIdx];\n\n        // \n        require(Investor.isVoteAgreeAchieveTarget(curStage.investors, curStage.targetAgreeRate));\n\n        Investor.investorWithdrawToken(curStage.investors, _addBalance);\n    }\n\n    // :(),ABS\n    function WithdrawABS() public {\n        require(StageTime.isEnd(_stages[_currentStageIdx].stageTime, now));\n\n        // \n        require(msg.sender == _owner);\n\n    }\n\n    // ABS -> token ()\n    function calcRateToken(uint256 ABSNum, uint256 changeRate) private view\n    returns (uint256){\n        return ABSNum.mul(changeRate);\n    }\n\n    constructor (\n        string name,\n        string symbol,\n        uint8 decimals,\n        uint256 totalSupply\n    )\n    ERC20Burnable()\n    ERC20Detailed(name, symbol, decimals)\n    ERC20()\n    public {\n        _totalSupply = totalSupply * (10 ** uint256(decimals));\n\n        _owner = msg.sender;\n        _balances[_owner] = _totalSupply;\n    }\n}\n",
  "sourcePath": "/mnt/disk1/linux/reference/project/testsol/stages/contracts/StagesToken.sol",
  "compiler": {
    "name": "solc",
    "version": "0.4.24+commit.e67f0147.Emscripten.clang"
  },
  "schemaVersion": "2.0.1",
  "updatedAt": "2018-09-10T03:29:14.740Z"
}