{
  "contractName": "StagesToken",
  "abi": [
    {
      "constant": true,
      "inputs": [],
      "name": "name",
      "outputs": [
        {
          "name": "",
          "type": "string"
        }
      ],
      "payable": false,
      "stateMutability": "view",
      "type": "function"
    },
    {
      "constant": false,
      "inputs": [
        {
          "name": "spender",
          "type": "address"
        },
        {
          "name": "value",
          "type": "uint256"
        }
      ],
      "name": "approve",
      "outputs": [
        {
          "name": "",
          "type": "bool"
        }
      ],
      "payable": false,
      "stateMutability": "nonpayable",
      "type": "function"
    },
    {
      "constant": true,
      "inputs": [],
      "name": "totalSupply",
      "outputs": [
        {
          "name": "",
          "type": "uint256"
        }
      ],
      "payable": false,
      "stateMutability": "view",
      "type": "function"
    },
    {
      "constant": false,
      "inputs": [
        {
          "name": "from",
          "type": "address"
        },
        {
          "name": "to",
          "type": "address"
        },
        {
          "name": "value",
          "type": "uint256"
        }
      ],
      "name": "transferFrom",
      "outputs": [
        {
          "name": "",
          "type": "bool"
        }
      ],
      "payable": false,
      "stateMutability": "nonpayable",
      "type": "function"
    },
    {
      "constant": true,
      "inputs": [],
      "name": "decimals",
      "outputs": [
        {
          "name": "",
          "type": "uint8"
        }
      ],
      "payable": false,
      "stateMutability": "view",
      "type": "function"
    },
    {
      "constant": false,
      "inputs": [
        {
          "name": "spender",
          "type": "address"
        },
        {
          "name": "addedValue",
          "type": "uint256"
        }
      ],
      "name": "increaseAllowance",
      "outputs": [
        {
          "name": "",
          "type": "bool"
        }
      ],
      "payable": false,
      "stateMutability": "nonpayable",
      "type": "function"
    },
    {
      "constant": false,
      "inputs": [
        {
          "name": "value",
          "type": "uint256"
        }
      ],
      "name": "burn",
      "outputs": [],
      "payable": false,
      "stateMutability": "nonpayable",
      "type": "function"
    },
    {
      "constant": true,
      "inputs": [],
      "name": "_item",
      "outputs": [
        {
          "name": "",
          "type": "address"
        }
      ],
      "payable": false,
      "stateMutability": "view",
      "type": "function"
    },
    {
      "constant": true,
      "inputs": [
        {
          "name": "owner",
          "type": "address"
        }
      ],
      "name": "balanceOf",
      "outputs": [
        {
          "name": "",
          "type": "uint256"
        }
      ],
      "payable": false,
      "stateMutability": "view",
      "type": "function"
    },
    {
      "constant": false,
      "inputs": [
        {
          "name": "from",
          "type": "address"
        },
        {
          "name": "value",
          "type": "uint256"
        }
      ],
      "name": "burnFrom",
      "outputs": [],
      "payable": false,
      "stateMutability": "nonpayable",
      "type": "function"
    },
    {
      "constant": true,
      "inputs": [],
      "name": "_currentStageIdx",
      "outputs": [
        {
          "name": "",
          "type": "uint256"
        }
      ],
      "payable": false,
      "stateMutability": "view",
      "type": "function"
    },
    {
      "constant": true,
      "inputs": [
        {
          "name": "",
          "type": "uint256"
        }
      ],
      "name": "_stages",
      "outputs": [
        {
          "name": "changeRate",
          "type": "uint256"
        },
        {
          "name": "targetAgreeRate",
          "type": "uint256"
        },
        {
          "components": [
            {
              "name": "saleBeginTime",
              "type": "uint256"
            },
            {
              "name": "saleEndTime",
              "type": "uint256"
            },
            {
              "name": "lockBeginTime",
              "type": "uint256"
            },
            {
              "name": "lockEndTime",
              "type": "uint256"
            },
            {
              "name": "voteBeginTime",
              "type": "uint256"
            },
            {
              "name": "voteEndTime",
              "type": "uint256"
            }
          ],
          "name": "stageTime",
          "type": "tuple"
        }
      ],
      "payable": false,
      "stateMutability": "view",
      "type": "function"
    },
    {
      "constant": true,
      "inputs": [],
      "name": "symbol",
      "outputs": [
        {
          "name": "",
          "type": "string"
        }
      ],
      "payable": false,
      "stateMutability": "view",
      "type": "function"
    },
    {
      "constant": false,
      "inputs": [
        {
          "name": "spender",
          "type": "address"
        },
        {
          "name": "subtractedValue",
          "type": "uint256"
        }
      ],
      "name": "decreaseAllowance",
      "outputs": [
        {
          "name": "",
          "type": "bool"
        }
      ],
      "payable": false,
      "stateMutability": "nonpayable",
      "type": "function"
    },
    {
      "constant": false,
      "inputs": [
        {
          "name": "to",
          "type": "address"
        },
        {
          "name": "value",
          "type": "uint256"
        }
      ],
      "name": "transfer",
      "outputs": [
        {
          "name": "",
          "type": "bool"
        }
      ],
      "payable": false,
      "stateMutability": "nonpayable",
      "type": "function"
    },
    {
      "constant": true,
      "inputs": [
        {
          "name": "owner",
          "type": "address"
        },
        {
          "name": "spender",
          "type": "address"
        }
      ],
      "name": "allowance",
      "outputs": [
        {
          "name": "",
          "type": "uint256"
        }
      ],
      "payable": false,
      "stateMutability": "view",
      "type": "function"
    },
    {
      "inputs": [
        {
          "name": "name",
          "type": "string"
        },
        {
          "name": "symbol",
          "type": "string"
        },
        {
          "name": "decimals",
          "type": "uint8"
        },
        {
          "name": "totalSupply",
          "type": "uint256"
        }
      ],
      "payable": false,
      "stateMutability": "nonpayable",
      "type": "constructor"
    },
    {
      "anonymous": false,
      "inputs": [
        {
          "indexed": true,
          "name": "from",
          "type": "address"
        },
        {
          "indexed": true,
          "name": "to",
          "type": "address"
        },
        {
          "indexed": false,
          "name": "value",
          "type": "uint256"
        }
      ],
      "name": "Transfer",
      "type": "event"
    },
    {
      "anonymous": false,
      "inputs": [
        {
          "indexed": true,
          "name": "owner",
          "type": "address"
        },
        {
          "indexed": true,
          "name": "spender",
          "type": "address"
        },
        {
          "indexed": false,
          "name": "value",
          "type": "uint256"
        }
      ],
      "name": "Approval",
      "type": "event"
    },
    {
      "constant": false,
      "inputs": [],
      "name": "SwitchStage",
      "outputs": [],
      "payable": false,
      "stateMutability": "nonpayable",
      "type": "function"
    },
    {
      "constant": false,
      "inputs": [],
      "name": "Invest",
      "outputs": [],
      "payable": true,
      "stateMutability": "payable",
      "type": "function"
    },
    {
      "constant": false,
      "inputs": [
        {
          "name": "isAgree",
          "type": "uint256"
        }
      ],
      "name": "Vote",
      "outputs": [],
      "payable": false,
      "stateMutability": "nonpayable",
      "type": "function"
    },
    {
      "constant": false,
      "inputs": [],
      "name": "InvestorWithdrawToken",
      "outputs": [],
      "payable": false,
      "stateMutability": "nonpayable",
      "type": "function"
    },
    {
      "constant": false,
      "inputs": [],
      "name": "ItemWithdrawABS",
      "outputs": [],
      "payable": false,
      "stateMutability": "nonpayable",
      "type": "function"
    },
    {
      "constant": false,
      "inputs": [],
      "name": "InvestorWithdrawAbs",
      "outputs": [],
      "payable": false,
      "stateMutability": "nonpayable",
      "type": "function"
    },
    {
      "constant": false,
      "inputs": [],
      "name": "ItemWithdrawToken",
      "outputs": [],
      "payable": false,
      "stateMutability": "nonpayable",
      "type": "function"
    }
  ],
  "bytecode": "0x60806040523480156200001157600080fd5b5060405162002ac938038062002ac9833981018060405281019080805182019291906020018051820192919060200180519060200190929190805190602001909291905050508383838260039080519060200190620000729291906200016b565b5081600490805190602001906200008b9291906200016b565b5080600560006101000a81548160ff021916908360ff1602179055505050508160ff16600a0a810260028190555033600560016101000a81548173ffffffffffffffffffffffffffffffffffffffff021916908373ffffffffffffffffffffffffffffffffffffffff160217905550600254600080600560019054906101000a900473ffffffffffffffffffffffffffffffffffffffff1673ffffffffffffffffffffffffffffffffffffffff1673ffffffffffffffffffffffffffffffffffffffff16815260200190815260200160002081905550505050506200021a565b828054600181600116156101000203166002900490600052602060002090601f016020900481019282601f10620001ae57805160ff1916838001178555620001df565b82800160010185558215620001df579182015b82811115620001de578251825591602001919060010190620001c1565b5b509050620001ee9190620001f2565b5090565b6200021791905b8082111562000213576000816000905550600101620001f9565b5090565b90565b61289f806200022a6000396000f300608060405260043610610133576000357c0100000000000000000000000000000000000000000000000000000000900463ffffffff16806306fdde0314610138578063095ea7b3146101c857806318160ddd1461022d57806321ea32d61461025857806323b872dd1461026f578063313ce567146102f4578063395093511461032557806342966c681461038a57806364337854146103b757806367053f36146103ce5780636c9231e1146103e557806370a082311461043c57806379cc6790146104935780639294d09f146104e0578063953a25e61461050b57806395d89b411461055a578063a457c2d7146105ea578063a9059cbb1461064f578063c0819961146106b4578063dcd6a5cd146106be578063dd62ed3e146106eb578063e51d134614610762578063ed666b7814610779575b600080fd5b34801561014457600080fd5b5061014d610790565b6040518080602001828103825283818151815260200191508051906020019080838360005b8381101561018d578082015181840152602081019050610172565b50505050905090810190601f1680156101ba5780820380516001836020036101000a031916815260200191505b509250505060405180910390f35b3480156101d457600080fd5b50610213600480360381019080803573ffffffffffffffffffffffffffffffffffffffff16906020019092919080359060200190929190505050610832565b604051808215151515815260200191505060405180910390f35b34801561023957600080fd5b5061024261095f565b6040518082815260200191505060405180910390f35b34801561026457600080fd5b5061026d610969565b005b34801561027b57600080fd5b506102da600480360381019080803573ffffffffffffffffffffffffffffffffffffffff169060200190929190803573ffffffffffffffffffffffffffffffffffffffff169060200190929190803590602001909291905050506109e4565b604051808215151515815260200191505060405180910390f35b34801561030057600080fd5b50610309610d9f565b604051808260ff1660ff16815260200191505060405180910390f35b34801561033157600080fd5b50610370600480360381019080803573ffffffffffffffffffffffffffffffffffffffff16906020019092919080359060200190929190505050610db6565b604051808215151515815260200191505060405180910390f35b34801561039657600080fd5b506103b560048036038101908080359060200190929190505050610fed565b005b3480156103c357600080fd5b506103cc610ffa565b005b3480156103da57600080fd5b506103e36110de565b005b3480156103f157600080fd5b506103fa6111c2565b604051808273ffffffffffffffffffffffffffffffffffffffff1673ffffffffffffffffffffffffffffffffffffffff16815260200191505060405180910390f35b34801561044857600080fd5b5061047d600480360381019080803573ffffffffffffffffffffffffffffffffffffffff1690602001909291905050506111e8565b6040518082815260200191505060405180910390f35b34801561049f57600080fd5b506104de600480360381019080803573ffffffffffffffffffffffffffffffffffffffff16906020019092919080359060200190929190505050611230565b005b3480156104ec57600080fd5b506104f561123e565b6040518082815260200191505060405180910390f35b34801561051757600080fd5b5061053660048036038101908080359060200190929190505050611244565b60405180848152602001838152602001828152602001935050505060405180910390f35b34801561056657600080fd5b5061056f6112c4565b6040518080602001828103825283818151815260200191508051906020019080838360005b838110156105af578082015181840152602081019050610594565b50505050905090810190601f1680156105dc5780820380516001836020036101000a031916815260200191505b509250505060405180910390f35b3480156105f657600080fd5b50610635600480360381019080803573ffffffffffffffffffffffffffffffffffffffff16906020019092919080359060200190929190505050611366565b604051808215151515815260200191505060405180910390f35b34801561065b57600080fd5b5061069a600480360381019080803573ffffffffffffffffffffffffffffffffffffffff1690602001909291908035906020019092919050505061159d565b604051808215151515815260200191505060405180910390f35b6106bc6117bd565b005b3480156106ca57600080fd5b506106e960048036038101908080359060200190929190505050611975565b005b3480156106f757600080fd5b5061074c600480360381019080803573ffffffffffffffffffffffffffffffffffffffff169060200190929190803573ffffffffffffffffffffffffffffffffffffffff169060200190929190505050611a51565b6040518082815260200191505060405180910390f35b34801561076e57600080fd5b50610777611ad8565b005b34801561078557600080fd5b5061078e611bbd565b005b606060038054600181600116156101000203166002900480601f0160208091040260200160405190810160405280929190818152602001828054600181600116156101000203166002900480156108285780601f106107fd57610100808354040283529160200191610828565b820191906000526020600020905b81548152906001019060200180831161080b57829003601f168201915b5050505050905090565b60008073ffffffffffffffffffffffffffffffffffffffff168373ffffffffffffffffffffffffffffffffffffffff161415151561086f57600080fd5b81600160003373ffffffffffffffffffffffffffffffffffffffff1673ffffffffffffffffffffffffffffffffffffffff16815260200190815260200160002060008573ffffffffffffffffffffffffffffffffffffffff1673ffffffffffffffffffffffffffffffffffffffff168152602001908152602001600020819055508273ffffffffffffffffffffffffffffffffffffffff163373ffffffffffffffffffffffffffffffffffffffff167f8c5be1e5ebec7d5bd14f71427d1e84f3dd0314c0f7b2291e5b200ac8c7c3b925846040518082815260200191505060405180910390a36001905092915050565b6000600254905090565b600060075490505b6006805490508110156109be576109a760068281548110151561099057fe5b906000526020600020906009020160020142611ca0565b156109b1576109be565b8080600101915050610971565b60075481141580156109d4575060068054905081105b156109e157806007819055505b50565b60008060008573ffffffffffffffffffffffffffffffffffffffff1673ffffffffffffffffffffffffffffffffffffffff168152602001908152602001600020548211151515610a3357600080fd5b600160008573ffffffffffffffffffffffffffffffffffffffff1673ffffffffffffffffffffffffffffffffffffffff16815260200190815260200160002060003373ffffffffffffffffffffffffffffffffffffffff1673ffffffffffffffffffffffffffffffffffffffff168152602001908152602001600020548211151515610abe57600080fd5b600073ffffffffffffffffffffffffffffffffffffffff168373ffffffffffffffffffffffffffffffffffffffff1614151515610afa57600080fd5b610b4b826000808773ffffffffffffffffffffffffffffffffffffffff1673ffffffffffffffffffffffffffffffffffffffff16815260200190815260200160002054611cc290919063ffffffff16565b6000808673ffffffffffffffffffffffffffffffffffffffff1673ffffffffffffffffffffffffffffffffffffffff16815260200190815260200160002081905550610bde826000808673ffffffffffffffffffffffffffffffffffffffff1673ffffffffffffffffffffffffffffffffffffffff16815260200190815260200160002054611ce390919063ffffffff16565b6000808573ffffffffffffffffffffffffffffffffffffffff1673ffffffffffffffffffffffffffffffffffffffff16815260200190815260200160002081905550610caf82600160008773ffffffffffffffffffffffffffffffffffffffff1673ffffffffffffffffffffffffffffffffffffffff16815260200190815260200160002060003373ffffffffffffffffffffffffffffffffffffffff1673ffffffffffffffffffffffffffffffffffffffff16815260200190815260200160002054611cc290919063ffffffff16565b600160008673ffffffffffffffffffffffffffffffffffffffff1673ffffffffffffffffffffffffffffffffffffffff16815260200190815260200160002060003373ffffffffffffffffffffffffffffffffffffffff1673ffffffffffffffffffffffffffffffffffffffff168152602001908152602001600020819055508273ffffffffffffffffffffffffffffffffffffffff168473ffffffffffffffffffffffffffffffffffffffff167fddf252ad1be2c89b69c2b068fc378daa952ba7f163c4a11628f55a4df523b3ef846040518082815260200191505060405180910390a3600190509392505050565b6000600560009054906101000a900460ff16905090565b60008073ffffffffffffffffffffffffffffffffffffffff168373ffffffffffffffffffffffffffffffffffffffff1614151515610df357600080fd5b610e8282600160003373ffffffffffffffffffffffffffffffffffffffff1673ffffffffffffffffffffffffffffffffffffffff16815260200190815260200160002060008673ffffffffffffffffffffffffffffffffffffffff1673ffffffffffffffffffffffffffffffffffffffff16815260200190815260200160002054611ce390919063ffffffff16565b600160003373ffffffffffffffffffffffffffffffffffffffff1673ffffffffffffffffffffffffffffffffffffffff16815260200190815260200160002060008573ffffffffffffffffffffffffffffffffffffffff1673ffffffffffffffffffffffffffffffffffffffff168152602001908152602001600020819055508273ffffffffffffffffffffffffffffffffffffffff163373ffffffffffffffffffffffffffffffffffffffff167f8c5be1e5ebec7d5bd14f71427d1e84f3dd0314c0f7b2291e5b200ac8c7c3b925600160003373ffffffffffffffffffffffffffffffffffffffff1673ffffffffffffffffffffffffffffffffffffffff16815260200190815260200160002060008773ffffffffffffffffffffffffffffffffffffffff1673ffffffffffffffffffffffffffffffffffffffff168152602001908152602001600020546040518082815260200191505060405180910390a36001905092915050565b610ff73382611d04565b50565b6000611027600660075481548110151561101057fe5b906000526020600020906009020160020142611d12565b151561103257600080fd5b600560019054906101000a900473ffffffffffffffffffffffffffffffffffffffff1673ffffffffffffffffffffffffffffffffffffffff163373ffffffffffffffffffffffffffffffffffffffff1614151561108e57600080fd5b600660075481548110151561109f57fe5b906000526020600020906009020190506110c0816008018260010154611d59565b1515156110cc57600080fd5b6110db81600801611e02611e0f565b50565b600061110b60066007548154811015156110f457fe5b906000526020600020906009020160020142611d12565b151561111657600080fd5b600560019054906101000a900473ffffffffffffffffffffffffffffffffffffffff1673ffffffffffffffffffffffffffffffffffffffff163373ffffffffffffffffffffffffffffffffffffffff161415151561117357600080fd5b600660075481548110151561118457fe5b906000526020600020906009020190506111a5816008018260010154611d59565b15156111b057600080fd5b6111bf81600801611e84611f1b565b50565b600560019054906101000a900473ffffffffffffffffffffffffffffffffffffffff1681565b60008060008373ffffffffffffffffffffffffffffffffffffffff1673ffffffffffffffffffffffffffffffffffffffff168152602001908152602001600020549050919050565b61123a8282611fd0565b5050565b60075481565b60068181548110151561125357fe5b90600052602060002090600902016000915090508060000154908060010154908060020160c060405190810160405290816000820154815260200160018201548152602001600282015481526020016003820154815260200160048201548152602001600582015481525050905083565b606060048054600181600116156101000203166002900480601f01602080910402602001604051908101604052809291908181526020018280546001816001161561010002031660029004801561135c5780601f106113315761010080835404028352916020019161135c565b820191906000526020600020905b81548152906001019060200180831161133f57829003601f168201915b5050505050905090565b60008073ffffffffffffffffffffffffffffffffffffffff168373ffffffffffffffffffffffffffffffffffffffff16141515156113a357600080fd5b61143282600160003373ffffffffffffffffffffffffffffffffffffffff1673ffffffffffffffffffffffffffffffffffffffff16815260200190815260200160002060008673ffffffffffffffffffffffffffffffffffffffff1673ffffffffffffffffffffffffffffffffffffffff16815260200190815260200160002054611cc290919063ffffffff16565b600160003373ffffffffffffffffffffffffffffffffffffffff1673ffffffffffffffffffffffffffffffffffffffff16815260200190815260200160002060008573ffffffffffffffffffffffffffffffffffffffff1673ffffffffffffffffffffffffffffffffffffffff168152602001908152602001600020819055508273ffffffffffffffffffffffffffffffffffffffff163373ffffffffffffffffffffffffffffffffffffffff167f8c5be1e5ebec7d5bd14f71427d1e84f3dd0314c0f7b2291e5b200ac8c7c3b925600160003373ffffffffffffffffffffffffffffffffffffffff1673ffffffffffffffffffffffffffffffffffffffff16815260200190815260200160002060008773ffffffffffffffffffffffffffffffffffffffff1673ffffffffffffffffffffffffffffffffffffffff168152602001908152602001600020546040518082815260200191505060405180910390a36001905092915050565b60008060003373ffffffffffffffffffffffffffffffffffffffff1673ffffffffffffffffffffffffffffffffffffffff1681526020019081526020016000205482111515156115ec57600080fd5b600073ffffffffffffffffffffffffffffffffffffffff168373ffffffffffffffffffffffffffffffffffffffff161415151561162857600080fd5b611679826000803373ffffffffffffffffffffffffffffffffffffffff1673ffffffffffffffffffffffffffffffffffffffff16815260200190815260200160002054611cc290919063ffffffff16565b6000803373ffffffffffffffffffffffffffffffffffffffff1673ffffffffffffffffffffffffffffffffffffffff1681526020019081526020016000208190555061170c826000808673ffffffffffffffffffffffffffffffffffffffff1673ffffffffffffffffffffffffffffffffffffffff16815260200190815260200160002054611ce390919063ffffffff16565b6000808573ffffffffffffffffffffffffffffffffffffffff1673ffffffffffffffffffffffffffffffffffffffff168152602001908152602001600020819055508273ffffffffffffffffffffffffffffffffffffffff163373ffffffffffffffffffffffffffffffffffffffff167fddf252ad1be2c89b69c2b068fc378daa952ba7f163c4a11628f55a4df523b3ef846040518082815260200191505060405180910390a36001905092915050565b60008060008060006117cd612829565b6117f860066007548154811015156117e157fe5b906000526020600020906009020160020142611ca0565b151561180357600080fd5b600660075481548110151561181457fe5b906000526020600020906009020195506118318660080133612178565b9450945061184334876000015461222c565b9250611871600560019054906101000a900473ffffffffffffffffffffffffffffffffffffffff1684612249565b84156118a857856008018481548110151561188857fe5b906000526020600020906004020191506118a382348561232d565b61196d565b6118b3333485612370565b905085600801819080600181540180825580915050906001820390600052602060002090600402016000909192909190915060008201518160000160006101000a81548173ffffffffffffffffffffffffffffffffffffffff021916908373ffffffffffffffffffffffffffffffffffffffff160217905550602082015181600101556040820151816002015560608201518160030160006101000a81548160ff0219169083600281111561196457fe5b02179055505050505b505050505050565b6000806000806119a6600660075481548110151561198f57fe5b9060005260206000209060090201600201426123fa565b15156119b157600080fd5b60066007548154811015156119c257fe5b906000526020600020906009020193506119df8460080133612178565b925092508215156119ef57600080fd5b8360080182815481101515611a0057fe5b90600052602060002090600402019050611a198161241c565b151515611a2557600080fd5b6000851415611a3e57611a39816000612450565b611a4a565b611a49816001612450565b5b5050505050565b6000600160008473ffffffffffffffffffffffffffffffffffffffff1673ffffffffffffffffffffffffffffffffffffffff16815260200190815260200160002060008373ffffffffffffffffffffffffffffffffffffffff1673ffffffffffffffffffffffffffffffffffffffff16815260200190815260200160002054905092915050565b6000611b056006600754815481101515611aee57fe5b906000526020600020906009020160020142611d12565b1515611b1057600080fd5b600560019054906101000a900473ffffffffffffffffffffffffffffffffffffffff1673ffffffffffffffffffffffffffffffffffffffff163373ffffffffffffffffffffffffffffffffffffffff1614151515611b6d57600080fd5b6006600754815481101515611b7e57fe5b90600052602060002090600902019050611b9f816008018260010154611d59565b151515611bab57600080fd5b611bba816008016124ac6124f6565b50565b6000611bea6006600754815481101515611bd357fe5b906000526020600020906009020160020142611d12565b1515611bf557600080fd5b600560019054906101000a900473ffffffffffffffffffffffffffffffffffffffff1673ffffffffffffffffffffffffffffffffffffffff163373ffffffffffffffffffffffffffffffffffffffff16141515611c5157600080fd5b6006600754815481101515611c6257fe5b90600052602060002090600902019050611c83816008018260010154611d59565b1515611c8e57600080fd5b611c9d816008016124ac61256b565b50565b600082600001548210158015611cba575082600101548211155b905092915050565b600080838311151515611cd457600080fd5b82840390508091505092915050565b6000808284019050838110151515611cfa57600080fd5b8091505092915050565b611d0e82826125e0565b5050565b6000611d1e8383611ca0565b80611d2f5750611d2e838361276b565b5b80611d405750611d3f83836123fa565b5b15611d4e5760009050611d53565b600190505b92915050565b60008060008060009250600091505b8580549050821015611db357611d988683815481101515611d8557fe5b906000526020600020906004020161278d565b15611da65782806001019350505b8180600101925050611d68565b611dde8680549050611dd0612710866127c190919063ffffffff16565b6127ff90919063ffffffff16565b9050611df46064866127c190919063ffffffff16565b811015935050505092915050565b611e0c3382611e84565b50565b60008090505b8280549050811015611e7f57611e4d8382815481101515611e3257fe5b9060005260206000209060040201600201548363ffffffff16565b60008382815481101515611e5d57fe5b9060005260206000209060040201600201819055508080600101915050611e15565b505050565b611ed5816000808573ffffffffffffffffffffffffffffffffffffffff1673ffffffffffffffffffffffffffffffffffffffff16815260200190815260200160002054611ce390919063ffffffff16565b6000808473ffffffffffffffffffffffffffffffffffffffff1673ffffffffffffffffffffffffffffffffffffffff168152602001908152602001600020819055505050565b60008090505b8280549050811015611fcb57611f998382815481101515611f3e57fe5b906000526020600020906004020160000160009054906101000a900473ffffffffffffffffffffffffffffffffffffffff168483815481101515611f7e57fe5b9060005260206000209060040201600201548463ffffffff16565b60008382815481101515611fa957fe5b9060005260206000209060040201600201819055508080600101915050611f21565b505050565b600160008373ffffffffffffffffffffffffffffffffffffffff1673ffffffffffffffffffffffffffffffffffffffff16815260200190815260200160002060003373ffffffffffffffffffffffffffffffffffffffff1673ffffffffffffffffffffffffffffffffffffffff16815260200190815260200160002054811115151561205b57600080fd5b6120ea81600160008573ffffffffffffffffffffffffffffffffffffffff1673ffffffffffffffffffffffffffffffffffffffff16815260200190815260200160002060003373ffffffffffffffffffffffffffffffffffffffff1673ffffffffffffffffffffffffffffffffffffffff16815260200190815260200160002054611cc290919063ffffffff16565b600160008473ffffffffffffffffffffffffffffffffffffffff1673ffffffffffffffffffffffffffffffffffffffff16815260200190815260200160002060003373ffffffffffffffffffffffffffffffffffffffff1673ffffffffffffffffffffffffffffffffffffffff168152602001908152602001600020819055506121748282611d04565b5050565b60008060008090505b8480549050811015612219578373ffffffffffffffffffffffffffffffffffffffff1685828154811015156121b257fe5b906000526020600020906004020160000160009054906101000a900473ffffffffffffffffffffffffffffffffffffffff1673ffffffffffffffffffffffffffffffffffffffff16141561220c5760018192509250612224565b8080600101915050612181565b600080809050925092505b509250929050565b600061224182846127c190919063ffffffff16565b905092915050565b6000808373ffffffffffffffffffffffffffffffffffffffff1673ffffffffffffffffffffffffffffffffffffffff16815260200190815260200160002054811115151561229657600080fd5b6122e7816000808573ffffffffffffffffffffffffffffffffffffffff1673ffffffffffffffffffffffffffffffffffffffff16815260200190815260200160002054611cc290919063ffffffff16565b6000808473ffffffffffffffffffffffffffffffffffffffff1673ffffffffffffffffffffffffffffffffffffffff168152602001908152602001600020819055505050565b612344828460010154611ce390919063ffffffff16565b8360010181905550612363818460020154611ce390919063ffffffff16565b8360020181905550505050565b612378612829565b612380612829565b84816000019073ffffffffffffffffffffffffffffffffffffffff16908173ffffffffffffffffffffffffffffffffffffffff168152505083816020018181525050828160400181815250506000816060019060028111156123de57fe5b908160028111156123eb57fe5b81525050809150509392505050565b600082600401548210158015612414575082600501548211155b905092915050565b600080600281111561242a57fe5b8260030160009054906101000a900460ff16600281111561244757fe5b14159050919050565b80156124815760018260030160006101000a81548160ff0219169083600281111561247757fe5b02179055506124a8565b60028260030160006101000a81548160ff021916908360028111156124a257fe5b02179055505b5050565b3373ffffffffffffffffffffffffffffffffffffffff166108fc829081150290604051600060405180830381858888f193505050501580156124f2573d6000803e3d6000fd5b5050565b60008090505b828054905081101561256657612534838281548110151561251957fe5b9060005260206000209060040201600101548363ffffffff16565b6000838281548110151561254457fe5b90600052602060002090600402016001018190555080806001019150506124fc565b505050565b60008090505b82805490508110156125db576125a9838281548110151561258e57fe5b9060005260206000209060040201600101548363ffffffff16565b600083828154811015156125b957fe5b9060005260206000209060040201600101819055508080600101915050612571565b505050565b60008273ffffffffffffffffffffffffffffffffffffffff161415151561260657600080fd5b6000808373ffffffffffffffffffffffffffffffffffffffff1673ffffffffffffffffffffffffffffffffffffffff16815260200190815260200160002054811115151561265357600080fd5b61266881600254611cc290919063ffffffff16565b6002819055506126bf816000808573ffffffffffffffffffffffffffffffffffffffff1673ffffffffffffffffffffffffffffffffffffffff16815260200190815260200160002054611cc290919063ffffffff16565b6000808473ffffffffffffffffffffffffffffffffffffffff1673ffffffffffffffffffffffffffffffffffffffff16815260200190815260200160002081905550600073ffffffffffffffffffffffffffffffffffffffff168273ffffffffffffffffffffffffffffffffffffffff167fddf252ad1be2c89b69c2b068fc378daa952ba7f163c4a11628f55a4df523b3ef836040518082815260200191505060405180910390a35050565b600082600201548210158015612785575082600301548211155b905092915050565b60006001600281111561279c57fe5b8260030160009054906101000a900460ff1660028111156127b957fe5b149050919050565b60008060008414156127d657600091506127f8565b82840290508284828115156127e757fe5b041415156127f457600080fd5b8091505b5092915050565b60008060008311151561281157600080fd5b828481151561281c57fe5b0490508091505092915050565b608060405190810160405280600073ffffffffffffffffffffffffffffffffffffffff16815260200160008152602001600081526020016000600281111561286d57fe5b815250905600a165627a7a72305820e6c8ad5d0cfcae7f2bf84df1cbe8185c3309b889e7eda157a681fb6a0824a2950029",
  "source": "pragma solidity ^0.4.24;\n\nimport \"openzeppelin-solidity/contracts/token/ERC20/ERC20.sol\";\nimport \"openzeppelin-solidity/contracts/token/ERC20/ERC20Detailed.sol\";\nimport \"openzeppelin-solidity/contracts/token/ERC20/ERC20Burnable.sol\";\nimport \"openzeppelin-solidity/contracts/math/SafeMath.sol\";\n\nimport \"./StageTime.sol\";\nimport \"./Investor.sol\";\n\ncontract StagesToken is ERC20, ERC20Detailed, ERC20Burnable {\n    using SafeMath for uint;\n\n    address public _item;                // ()\n\n    Stage[] public _stages;              // \n    uint256 public _currentStageIdx;     // Idx\n\n    struct Stage {\n        uint256 changeRate;              // token (), : 1:1000,ABS1000token\n        uint256 targetAgreeRate;         // agree, :0-100\n        StageTime.StageTime_ stageTime;  // \n        Investor.Investor_[] investors;  // \n    }\n\n    // \n    function SwitchStage() public {\n        uint256 i = _currentStageIdx;\n        for (; i < _stages.length; i++) {\n            if (StageTime.isInSale(_stages[i].stageTime, now)) {\n                break;\n            }\n        }\n        if (i != _currentStageIdx && i < _stages.length) {\n            _currentStageIdx = i;\n        }\n    }\n\n    // : ABS\n    function Invest() public payable {\n        require(StageTime.isInSale(_stages[_currentStageIdx].stageTime, now));\n\n        Stage storage curStage = _stages[_currentStageIdx];\n        (bool exist, uint256 idx) = Investor.findInIdx(curStage.investors, msg.sender);\n\n        // 1. A. token B. token\n        uint256 rateTokenNum = calcRateToken(msg.value, curStage.changeRate);\n        minBalance(_item, rateTokenNum);\n\n        // 2. A. ABS B. ABS\n        if (exist) {\n            Investor.Investor_ storage curInvestor = curStage.investors[idx];\n            Investor.appendInvestor(curInvestor, msg.value, rateTokenNum);\n        } else {\n            Investor.Investor_ memory investor = Investor.newInvestor(msg.sender, msg.value, rateTokenNum);\n            curStage.investors.push(investor);\n        }\n    }\n\n    // :  0=,=\n    function Vote(uint256 isAgree) public {\n        require(StageTime.isInVote(_stages[_currentStageIdx].stageTime, now));\n\n        // \n        Stage storage curStage = _stages[_currentStageIdx];\n        (bool exist, uint256 idx) = Investor.findInIdx(curStage.investors, msg.sender);\n        require(exist);\n\n        Investor.Investor_ storage curInvestor = curStage.investors[idx];\n\n        // \n        require(!Investor.isVoted(curInvestor));\n\n        if (isAgree == 0) {\n            Investor.vote(curInvestor, false);\n        } else {\n            Investor.vote(curInvestor, true);\n        }\n    }\n\n    // : (),token\n    function InvestorWithdrawToken() public {\n        require(StageTime.isEnd(_stages[_currentStageIdx].stageTime, now));\n\n        // \n        require(msg.sender != _item);\n\n        Stage storage curStage = _stages[_currentStageIdx];\n\n        // \n        require(Investor.isVoteAgreeAchieveTarget(curStage.investors, curStage.targetAgreeRate));\n\n        Investor.investorWithdrawToken(curStage.investors, addBalance);\n    }\n\n    // :(),ABS\n    function ItemWithdrawABS() public {\n        require(StageTime.isEnd(_stages[_currentStageIdx].stageTime, now));\n\n        // \n        require(msg.sender == _item);\n\n        Stage storage curStage = _stages[_currentStageIdx];\n\n        // \n        require(Investor.isVoteAgreeAchieveTarget(curStage.investors, curStage.targetAgreeRate));\n\n        Investor.itemWithdrawABS(curStage.investors, addSendersABS);\n    }\n\n    // : (),ABS\n    function InvestorWithdrawAbs() public {\n        require(StageTime.isEnd(_stages[_currentStageIdx].stageTime, now));\n\n        // \n        require(msg.sender != _item);\n\n        Stage storage curStage = _stages[_currentStageIdx];\n\n        // \n        require(!Investor.isVoteAgreeAchieveTarget(curStage.investors, curStage.targetAgreeRate));\n\n        Investor.investorWithdrawABS(curStage.investors, addSendersABS);\n    }\n\n    // : (),token\n    function ItemWithdrawToken() public {\n        require(StageTime.isEnd(_stages[_currentStageIdx].stageTime, now));\n\n        // \n        require(msg.sender == _item);\n\n        Stage storage curStage = _stages[_currentStageIdx];\n\n        // \n        require(!Investor.isVoteAgreeAchieveTarget(curStage.investors, curStage.targetAgreeRate));\n\n        Investor.itemWithdrawToken(curStage.investors, addSendersToken);\n    }\n\n    // ABS -> token ()\n    function calcRateToken(uint256 ABSNum, uint256 changeRate) private pure\n    returns (uint256){\n        return ABSNum.mul(changeRate);\n    }\n\n    // idtoken\n    function minBalance(address id, uint256 tokenNum) private {\n        require(tokenNum <= _balances[id]);\n        _balances[id] = _balances[id].sub(tokenNum);\n    }\n\n    // idtoken\n    function addBalance(address id, uint256 tokenNum) private {\n        _balances[id] = _balances[id].add(tokenNum);\n    }\n\n    // ABS\n    function addSendersABS(uint256 ABSNum) private {\n        msg.sender.transfer(ABSNum);\n    }\n\n    // token\n    function addSendersToken(uint256 tokenNum) private {\n        addBalance(msg.sender, tokenNum);\n    }\n\n    constructor (\n        string name,\n        string symbol,\n        uint8 decimals,\n        uint256 totalSupply\n    )\n    ERC20Burnable()\n    ERC20Detailed(name, symbol, decimals)\n    ERC20()\n    public {\n        _totalSupply = totalSupply * (10 ** uint256(decimals));\n\n        _item = msg.sender;\n        _balances[_item] = _totalSupply;\n    }\n}\n",
  "sourcePath": "/mnt/disk1/linux/reference/project/testsol/stages/contracts/StagesToken.sol",
  "compiler": {
    "name": "solc",
    "version": "0.4.24+commit.e67f0147.Emscripten.clang"
  },
  "schemaVersion": "2.0.1",
  "updatedAt": "2018-09-10T07:11:20.067Z"
}