{
  "contractName": "StagesToken",
  "abi": [
    {
      "constant": true,
      "inputs": [],
      "name": "name",
      "outputs": [
        {
          "name": "",
          "type": "string"
        }
      ],
      "payable": false,
      "stateMutability": "view",
      "type": "function"
    },
    {
      "constant": false,
      "inputs": [
        {
          "name": "spender",
          "type": "address"
        },
        {
          "name": "value",
          "type": "uint256"
        }
      ],
      "name": "approve",
      "outputs": [
        {
          "name": "",
          "type": "bool"
        }
      ],
      "payable": false,
      "stateMutability": "nonpayable",
      "type": "function"
    },
    {
      "constant": true,
      "inputs": [],
      "name": "totalSupply",
      "outputs": [
        {
          "name": "",
          "type": "uint256"
        }
      ],
      "payable": false,
      "stateMutability": "view",
      "type": "function"
    },
    {
      "constant": false,
      "inputs": [
        {
          "name": "from",
          "type": "address"
        },
        {
          "name": "to",
          "type": "address"
        },
        {
          "name": "value",
          "type": "uint256"
        }
      ],
      "name": "transferFrom",
      "outputs": [
        {
          "name": "",
          "type": "bool"
        }
      ],
      "payable": false,
      "stateMutability": "nonpayable",
      "type": "function"
    },
    {
      "constant": true,
      "inputs": [],
      "name": "decimals",
      "outputs": [
        {
          "name": "",
          "type": "uint8"
        }
      ],
      "payable": false,
      "stateMutability": "view",
      "type": "function"
    },
    {
      "constant": false,
      "inputs": [
        {
          "name": "spender",
          "type": "address"
        },
        {
          "name": "addedValue",
          "type": "uint256"
        }
      ],
      "name": "increaseAllowance",
      "outputs": [
        {
          "name": "",
          "type": "bool"
        }
      ],
      "payable": false,
      "stateMutability": "nonpayable",
      "type": "function"
    },
    {
      "constant": false,
      "inputs": [
        {
          "name": "value",
          "type": "uint256"
        }
      ],
      "name": "burn",
      "outputs": [],
      "payable": false,
      "stateMutability": "nonpayable",
      "type": "function"
    },
    {
      "constant": true,
      "inputs": [
        {
          "name": "owner",
          "type": "address"
        }
      ],
      "name": "balanceOf",
      "outputs": [
        {
          "name": "",
          "type": "uint256"
        }
      ],
      "payable": false,
      "stateMutability": "view",
      "type": "function"
    },
    {
      "constant": false,
      "inputs": [
        {
          "name": "from",
          "type": "address"
        },
        {
          "name": "value",
          "type": "uint256"
        }
      ],
      "name": "burnFrom",
      "outputs": [],
      "payable": false,
      "stateMutability": "nonpayable",
      "type": "function"
    },
    {
      "constant": true,
      "inputs": [],
      "name": "symbol",
      "outputs": [
        {
          "name": "",
          "type": "string"
        }
      ],
      "payable": false,
      "stateMutability": "view",
      "type": "function"
    },
    {
      "constant": false,
      "inputs": [
        {
          "name": "spender",
          "type": "address"
        },
        {
          "name": "subtractedValue",
          "type": "uint256"
        }
      ],
      "name": "decreaseAllowance",
      "outputs": [
        {
          "name": "",
          "type": "bool"
        }
      ],
      "payable": false,
      "stateMutability": "nonpayable",
      "type": "function"
    },
    {
      "constant": false,
      "inputs": [
        {
          "name": "to",
          "type": "address"
        },
        {
          "name": "value",
          "type": "uint256"
        }
      ],
      "name": "transfer",
      "outputs": [
        {
          "name": "",
          "type": "bool"
        }
      ],
      "payable": false,
      "stateMutability": "nonpayable",
      "type": "function"
    },
    {
      "constant": true,
      "inputs": [
        {
          "name": "owner",
          "type": "address"
        },
        {
          "name": "spender",
          "type": "address"
        }
      ],
      "name": "allowance",
      "outputs": [
        {
          "name": "",
          "type": "uint256"
        }
      ],
      "payable": false,
      "stateMutability": "view",
      "type": "function"
    },
    {
      "inputs": [
        {
          "name": "name",
          "type": "string"
        },
        {
          "name": "symbol",
          "type": "string"
        },
        {
          "name": "decimals",
          "type": "uint8"
        },
        {
          "name": "totalSupply",
          "type": "uint256"
        }
      ],
      "payable": false,
      "stateMutability": "nonpayable",
      "type": "constructor"
    },
    {
      "anonymous": false,
      "inputs": [
        {
          "indexed": true,
          "name": "from",
          "type": "address"
        },
        {
          "indexed": true,
          "name": "to",
          "type": "address"
        },
        {
          "indexed": false,
          "name": "value",
          "type": "uint256"
        }
      ],
      "name": "Transfer",
      "type": "event"
    },
    {
      "anonymous": false,
      "inputs": [
        {
          "indexed": true,
          "name": "owner",
          "type": "address"
        },
        {
          "indexed": true,
          "name": "spender",
          "type": "address"
        },
        {
          "indexed": false,
          "name": "value",
          "type": "uint256"
        }
      ],
      "name": "Approval",
      "type": "event"
    },
    {
      "constant": true,
      "inputs": [],
      "name": "Item",
      "outputs": [
        {
          "name": "",
          "type": "address"
        }
      ],
      "payable": false,
      "stateMutability": "view",
      "type": "function"
    },
    {
      "constant": true,
      "inputs": [],
      "name": "ItemBalance",
      "outputs": [
        {
          "name": "",
          "type": "uint256"
        }
      ],
      "payable": false,
      "stateMutability": "view",
      "type": "function"
    },
    {
      "constant": true,
      "inputs": [],
      "name": "StagesLen",
      "outputs": [
        {
          "name": "",
          "type": "uint256"
        }
      ],
      "payable": false,
      "stateMutability": "view",
      "type": "function"
    },
    {
      "constant": true,
      "inputs": [],
      "name": "CurrentStageIdx",
      "outputs": [
        {
          "name": "",
          "type": "uint256"
        }
      ],
      "payable": false,
      "stateMutability": "view",
      "type": "function"
    },
    {
      "constant": true,
      "inputs": [
        {
          "name": "idx",
          "type": "uint256"
        }
      ],
      "name": "GetStages",
      "outputs": [
        {
          "name": "",
          "type": "string"
        }
      ],
      "payable": false,
      "stateMutability": "view",
      "type": "function"
    },
    {
      "constant": true,
      "inputs": [
        {
          "name": "stageIdx",
          "type": "uint256"
        },
        {
          "name": "investorIdx",
          "type": "uint256"
        }
      ],
      "name": "GetStageInvestor",
      "outputs": [
        {
          "name": "",
          "type": "address"
        },
        {
          "name": "",
          "type": "string"
        }
      ],
      "payable": false,
      "stateMutability": "view",
      "type": "function"
    },
    {
      "constant": false,
      "inputs": [
        {
          "name": "saleBeginTime",
          "type": "uint256"
        },
        {
          "name": "saleEndTime",
          "type": "uint256"
        },
        {
          "name": "lockBeginTime",
          "type": "uint256"
        },
        {
          "name": "lockEndTime",
          "type": "uint256"
        },
        {
          "name": "voteBeginTime",
          "type": "uint256"
        },
        {
          "name": "voteEndTime",
          "type": "uint256"
        },
        {
          "name": "changeRate",
          "type": "uint256"
        },
        {
          "name": "targetAgreeRate",
          "type": "uint256"
        }
      ],
      "name": "AppendStage",
      "outputs": [],
      "payable": false,
      "stateMutability": "nonpayable",
      "type": "function"
    },
    {
      "constant": false,
      "inputs": [],
      "name": "SwitchStage",
      "outputs": [],
      "payable": false,
      "stateMutability": "nonpayable",
      "type": "function"
    },
    {
      "constant": false,
      "inputs": [],
      "name": "Invest",
      "outputs": [],
      "payable": true,
      "stateMutability": "payable",
      "type": "function"
    },
    {
      "constant": false,
      "inputs": [
        {
          "name": "isAgree",
          "type": "uint256"
        }
      ],
      "name": "Vote",
      "outputs": [],
      "payable": false,
      "stateMutability": "nonpayable",
      "type": "function"
    },
    {
      "constant": false,
      "inputs": [],
      "name": "InvestorWithdrawToken",
      "outputs": [],
      "payable": false,
      "stateMutability": "nonpayable",
      "type": "function"
    },
    {
      "constant": false,
      "inputs": [],
      "name": "InvestorWithdrawAbs",
      "outputs": [],
      "payable": false,
      "stateMutability": "nonpayable",
      "type": "function"
    },
    {
      "constant": false,
      "inputs": [],
      "name": "ItemWithdrawABS",
      "outputs": [],
      "payable": false,
      "stateMutability": "nonpayable",
      "type": "function"
    },
    {
      "constant": false,
      "inputs": [],
      "name": "ItemWithdrawToken",
      "outputs": [],
      "payable": false,
      "stateMutability": "nonpayable",
      "type": "function"
    }
  ],
  "bytecode": "0x60806040523480156200001157600080fd5b5060405162004247380380620042478339810180604052810190808051820192919060200180518201929190602001805190602001909291908051906020019092919050505083838382600390805190602001906200007292919062000173565b5081600490805190602001906200008b92919062000173565b5080600560006101000a81548160ff021916908360ff1602179055505050508160ff16600a0a810260028190555033600560016101000a81548173ffffffffffffffffffffffffffffffffffffffff021916908373ffffffffffffffffffffffffffffffffffffffff160217905550600254600080600560019054906101000a900473ffffffffffffffffffffffffffffffffffffffff1673ffffffffffffffffffffffffffffffffffffffff1673ffffffffffffffffffffffffffffffffffffffff1681526020019081526020016000208190555060006007819055505050505062000222565b828054600181600116156101000203166002900490600052602060002090601f016020900481019282601f10620001b657805160ff1916838001178555620001e7565b82800160010185558215620001e7579182015b82811115620001e6578251825591602001919060010190620001c9565b5b509050620001f69190620001fa565b5090565b6200021f91905b808211156200021b57600081600090555060010162000201565b5090565b90565b61401580620002326000396000f30060806040526004361061015f576000357c0100000000000000000000000000000000000000000000000000000000900463ffffffff16806306fdde0314610164578063095ea7b3146101f457806318160ddd1461025957806321ea32d61461028457806323b872dd1461029b578063313ce56714610320578063395093511461035157806342966c68146103b657806343e61088146103e3578063643378541461040e57806367053f36146104255780636a7a67f01461043c57806370a08231146104935780637644ebd7146104ea57806379478d011461051557806379cc6790146105bb5780638c47e81d1461060857806395d89b41146106eb578063a457c2d71461077b578063a9059cbb146107e0578063c081996114610845578063dcd6a5cd1461084f578063dd62ed3e1461087c578063dfb5cfd3146108f3578063e51d13461461091e578063e593fc9814610935578063ed666b78146109a8575b600080fd5b34801561017057600080fd5b506101796109bf565b6040518080602001828103825283818151815260200191508051906020019080838360005b838110156101b957808201518184015260208101905061019e565b50505050905090810190601f1680156101e65780820380516001836020036101000a031916815260200191505b509250505060405180910390f35b34801561020057600080fd5b5061023f600480360381019080803573ffffffffffffffffffffffffffffffffffffffff16906020019092919080359060200190929190505050610a61565b604051808215151515815260200191505060405180910390f35b34801561026557600080fd5b5061026e610b8e565b6040518082815260200191505060405180910390f35b34801561029057600080fd5b50610299610b98565b005b3480156102a757600080fd5b50610306600480360381019080803573ffffffffffffffffffffffffffffffffffffffff169060200190929190803573ffffffffffffffffffffffffffffffffffffffff16906020019092919080359060200190929190505050610c13565b604051808215151515815260200191505060405180910390f35b34801561032c57600080fd5b50610335610fce565b604051808260ff1660ff16815260200191505060405180910390f35b34801561035d57600080fd5b5061039c600480360381019080803573ffffffffffffffffffffffffffffffffffffffff16906020019092919080359060200190929190505050610fe5565b604051808215151515815260200191505060405180910390f35b3480156103c257600080fd5b506103e16004803603810190808035906020019092919050505061121c565b005b3480156103ef57600080fd5b506103f8611229565b6040518082815260200191505060405180910390f35b34801561041a57600080fd5b50610423611236565b005b34801561043157600080fd5b5061043a61139a565b005b34801561044857600080fd5b506104516114ff565b604051808273ffffffffffffffffffffffffffffffffffffffff1673ffffffffffffffffffffffffffffffffffffffff16815260200191505060405180910390f35b34801561049f57600080fd5b506104d4600480360381019080803573ffffffffffffffffffffffffffffffffffffffff169060200190929190505050611529565b6040518082815260200191505060405180910390f35b3480156104f657600080fd5b506104ff611571565b6040518082815260200191505060405180910390f35b34801561052157600080fd5b50610540600480360381019080803590602001909291905050506115a3565b6040518080602001828103825283818151815260200191508051906020019080838360005b83811015610580578082015181840152602081019050610565565b50505050905090810190601f1680156105ad5780820380516001836020036101000a031916815260200191505b509250505060405180910390f35b3480156105c757600080fd5b50610606600480360381019080803573ffffffffffffffffffffffffffffffffffffffff169060200190929190803590602001909291905050506119e7565b005b34801561061457600080fd5b5061063d60048036038101908080359060200190929190803590602001909291905050506119f5565b604051808373ffffffffffffffffffffffffffffffffffffffff1673ffffffffffffffffffffffffffffffffffffffff16815260200180602001828103825283818151815260200191508051906020019080838360005b838110156106af578082015181840152602081019050610694565b50505050905090810190601f1680156106dc5780820380516001836020036101000a031916815260200191505b50935050505060405180910390f35b3480156106f757600080fd5b50610700611c35565b6040518080602001828103825283818151815260200191508051906020019080838360005b83811015610740578082015181840152602081019050610725565b50505050905090810190601f16801561076d5780820380516001836020036101000a031916815260200191505b509250505060405180910390f35b34801561078757600080fd5b506107c6600480360381019080803573ffffffffffffffffffffffffffffffffffffffff16906020019092919080359060200190929190505050611cd7565b604051808215151515815260200191505060405180910390f35b3480156107ec57600080fd5b5061082b600480360381019080803573ffffffffffffffffffffffffffffffffffffffff16906020019092919080359060200190929190505050611f0e565b604051808215151515815260200191505060405180910390f35b61084d61212e565b005b34801561085b57600080fd5b5061087a60048036038101908080359060200190929190505050612598565b005b34801561088857600080fd5b506108dd600480360381019080803573ffffffffffffffffffffffffffffffffffffffff169060200190929190803573ffffffffffffffffffffffffffffffffffffffff1690602001909291905050506128c1565b6040518082815260200191505060405180910390f35b3480156108ff57600080fd5b50610908612948565b6040518082815260200191505060405180910390f35b34801561092a57600080fd5b50610933612952565b005b34801561094157600080fd5b506109a66004803603810190808035906020019092919080359060200190929190803590602001909291908035906020019092919080359060200190929190803590602001909291908035906020019092919080359060200190929190505050612ab8565b005b3480156109b457600080fd5b506109bd612c1c565b005b606060038054600181600116156101000203166002900480601f016020809104026020016040519081016040528092919081815260200182805460018160011615610100020316600290048015610a575780601f10610a2c57610100808354040283529160200191610a57565b820191906000526020600020905b815481529060010190602001808311610a3a57829003601f168201915b5050505050905090565b60008073ffffffffffffffffffffffffffffffffffffffff168373ffffffffffffffffffffffffffffffffffffffff1614151515610a9e57600080fd5b81600160003373ffffffffffffffffffffffffffffffffffffffff1673ffffffffffffffffffffffffffffffffffffffff16815260200190815260200160002060008573ffffffffffffffffffffffffffffffffffffffff1673ffffffffffffffffffffffffffffffffffffffff168152602001908152602001600020819055508273ffffffffffffffffffffffffffffffffffffffff163373ffffffffffffffffffffffffffffffffffffffff167f8c5be1e5ebec7d5bd14f71427d1e84f3dd0314c0f7b2291e5b200ac8c7c3b925846040518082815260200191505060405180910390a36001905092915050565b6000600254905090565b600060075490505b600680549050811015610bed57610bd6600682815481101515610bbf57fe5b906000526020600020906009020160000142612d7f565b15610be057610bed565b8080600101915050610ba0565b6007548114158015610c03575060068054905081105b15610c1057806007819055505b50565b60008060008573ffffffffffffffffffffffffffffffffffffffff1673ffffffffffffffffffffffffffffffffffffffff168152602001908152602001600020548211151515610c6257600080fd5b600160008573ffffffffffffffffffffffffffffffffffffffff1673ffffffffffffffffffffffffffffffffffffffff16815260200190815260200160002060003373ffffffffffffffffffffffffffffffffffffffff1673ffffffffffffffffffffffffffffffffffffffff168152602001908152602001600020548211151515610ced57600080fd5b600073ffffffffffffffffffffffffffffffffffffffff168373ffffffffffffffffffffffffffffffffffffffff1614151515610d2957600080fd5b610d7a826000808773ffffffffffffffffffffffffffffffffffffffff1673ffffffffffffffffffffffffffffffffffffffff16815260200190815260200160002054612da190919063ffffffff16565b6000808673ffffffffffffffffffffffffffffffffffffffff1673ffffffffffffffffffffffffffffffffffffffff16815260200190815260200160002081905550610e0d826000808673ffffffffffffffffffffffffffffffffffffffff1673ffffffffffffffffffffffffffffffffffffffff16815260200190815260200160002054612dc290919063ffffffff16565b6000808573ffffffffffffffffffffffffffffffffffffffff1673ffffffffffffffffffffffffffffffffffffffff16815260200190815260200160002081905550610ede82600160008773ffffffffffffffffffffffffffffffffffffffff1673ffffffffffffffffffffffffffffffffffffffff16815260200190815260200160002060003373ffffffffffffffffffffffffffffffffffffffff1673ffffffffffffffffffffffffffffffffffffffff16815260200190815260200160002054612da190919063ffffffff16565b600160008673ffffffffffffffffffffffffffffffffffffffff1673ffffffffffffffffffffffffffffffffffffffff16815260200190815260200160002060003373ffffffffffffffffffffffffffffffffffffffff1673ffffffffffffffffffffffffffffffffffffffff168152602001908152602001600020819055508273ffffffffffffffffffffffffffffffffffffffff168473ffffffffffffffffffffffffffffffffffffffff167fddf252ad1be2c89b69c2b068fc378daa952ba7f163c4a11628f55a4df523b3ef846040518082815260200191505060405180910390a3600190509392505050565b6000600560009054906101000a900460ff16905090565b60008073ffffffffffffffffffffffffffffffffffffffff168373ffffffffffffffffffffffffffffffffffffffff161415151561102257600080fd5b6110b182600160003373ffffffffffffffffffffffffffffffffffffffff1673ffffffffffffffffffffffffffffffffffffffff16815260200190815260200160002060008673ffffffffffffffffffffffffffffffffffffffff1673ffffffffffffffffffffffffffffffffffffffff16815260200190815260200160002054612dc290919063ffffffff16565b600160003373ffffffffffffffffffffffffffffffffffffffff1673ffffffffffffffffffffffffffffffffffffffff16815260200190815260200160002060008573ffffffffffffffffffffffffffffffffffffffff1673ffffffffffffffffffffffffffffffffffffffff168152602001908152602001600020819055508273ffffffffffffffffffffffffffffffffffffffff163373ffffffffffffffffffffffffffffffffffffffff167f8c5be1e5ebec7d5bd14f71427d1e84f3dd0314c0f7b2291e5b200ac8c7c3b925600160003373ffffffffffffffffffffffffffffffffffffffff1673ffffffffffffffffffffffffffffffffffffffff16815260200190815260200160002060008773ffffffffffffffffffffffffffffffffffffffff1673ffffffffffffffffffffffffffffffffffffffff168152602001908152602001600020546040518082815260200191505060405180910390a36001905092915050565b6112263382612de3565b50565b6000600680549050905090565b6000600560019054906101000a900473ffffffffffffffffffffffffffffffffffffffff1673ffffffffffffffffffffffffffffffffffffffff163373ffffffffffffffffffffffffffffffffffffffff161415156112fd576040517f08c379a00000000000000000000000000000000000000000000000000000000081526004018080602001828103825260098152602001807f6f6e6c79206974656d000000000000000000000000000000000000000000000081525060200191505060405180910390fd5b600090505b6006805490508110156113975761135860068281548110151561132157fe5b906000526020600020906009020160080160068381548110151561134157fe5b906000526020600020906009020160070154612df1565b151561138a5761138960068281548110151561137057fe5b9060005260206000209060090201600801612f17612fad565b5b8080600101915050611302565b50565b6000600560019054906101000a900473ffffffffffffffffffffffffffffffffffffffff1673ffffffffffffffffffffffffffffffffffffffff163373ffffffffffffffffffffffffffffffffffffffff1614151515611462576040517f08c379a000000000000000000000000000000000000000000000000000000000815260040180806020018281038252600d8152602001807f6f6e6c7920696e766573746f720000000000000000000000000000000000000081525060200191505060405180910390fd5b600090505b6006805490508110156114fc576114bd60068281548110151561148657fe5b90600052602060002090600902016008016006838154811015156114a657fe5b906000526020600020906009020160070154612df1565b156114ef576114ee6006828154811015156114d457fe5b906000526020600020906009020160080133612f17613022565b5b8080600101915050611467565b50565b6000600560019054906101000a900473ffffffffffffffffffffffffffffffffffffffff16905090565b60008060008373ffffffffffffffffffffffffffffffffffffffff1673ffffffffffffffffffffffffffffffffffffffff168152602001908152602001600020549050919050565b600061159e600560019054906101000a900473ffffffffffffffffffffffffffffffffffffffff16611529565b905090565b60608060068054905083101515611622576040517f08c379a00000000000000000000000000000000000000000000000000000000081526004018080602001828103825260128152602001807f696e646578206f7574206f662072616e6765000000000000000000000000000081525060200191505060405180910390fd5b602060405190810160405280600081525090506116628160068581548110151561164857fe5b90600052602060002090600902016000016000015461310c565b90506116a3816040805190810160405280600181526020017f7c000000000000000000000000000000000000000000000000000000000000008152506133a7565b90506116d2816006858154811015156116b857fe5b90600052602060002090600902016000016001015461310c565b9050611713816040805190810160405280600181526020017f7c000000000000000000000000000000000000000000000000000000000000008152506133a7565b90506117428160068581548110151561172857fe5b90600052602060002090600902016000016002015461310c565b9050611783816040805190810160405280600181526020017f7c000000000000000000000000000000000000000000000000000000000000008152506133a7565b90506117b28160068581548110151561179857fe5b90600052602060002090600902016000016003015461310c565b90506117f3816040805190810160405280600181526020017f7c000000000000000000000000000000000000000000000000000000000000008152506133a7565b90506118228160068581548110151561180857fe5b90600052602060002090600902016000016004015461310c565b9050611863816040805190810160405280600181526020017f7c000000000000000000000000000000000000000000000000000000000000008152506133a7565b90506118928160068581548110151561187857fe5b90600052602060002090600902016000016005015461310c565b90506118d3816040805190810160405280600181526020017f7c000000000000000000000000000000000000000000000000000000000000008152506133a7565b90506118ff816006858154811015156118e857fe5b90600052602060002090600902016006015461310c565b9050611940816040805190810160405280600181526020017f7c000000000000000000000000000000000000000000000000000000000000008152506133a7565b905061196c8160068581548110151561195557fe5b90600052602060002090600902016007015461310c565b90506119ad816040805190810160405280600181526020017f7c000000000000000000000000000000000000000000000000000000000000008152506133a7565b90506119dc816006858154811015156119c257fe5b90600052602060002090600902016008018054905061310c565b905080915050919050565b6119f1828261357a565b5050565b60006060600080606060068054905087101515611a7a576040517f08c379a00000000000000000000000000000000000000000000000000000000081526004018080602001828103825260128152602001807f696e646578206f7574206f662072616e6765000000000000000000000000000081525060200191505060405180910390fd5b600687815481101515611a8957fe5b90600052602060002090600902019250826008018054905086101515611b17576040517f08c379a00000000000000000000000000000000000000000000000000000000081526004018080602001828103825260128152602001807f696e646578206f7574206f662072616e6765000000000000000000000000000081525060200191505060405180910390fd5b8260080186815481101515611b2857fe5b9060005260206000209060040201915060206040519081016040528060008152509050611b5981836001015461310c565b9050611b9a816040805190810160405280600181526020017f7c000000000000000000000000000000000000000000000000000000000000008152506133a7565b9050611baa81836002015461310c565b9050611beb816040805190810160405280600181526020017f7c000000000000000000000000000000000000000000000000000000000000008152506133a7565b9050611bff81611bfa84613722565b61310c565b90508160000160009054906101000a900473ffffffffffffffffffffffffffffffffffffffff1681945094505050509250929050565b606060048054600181600116156101000203166002900480601f016020809104026020016040519081016040528092919081815260200182805460018160011615610100020316600290048015611ccd5780601f10611ca257610100808354040283529160200191611ccd565b820191906000526020600020905b815481529060010190602001808311611cb057829003601f168201915b5050505050905090565b60008073ffffffffffffffffffffffffffffffffffffffff168373ffffffffffffffffffffffffffffffffffffffff1614151515611d1457600080fd5b611da382600160003373ffffffffffffffffffffffffffffffffffffffff1673ffffffffffffffffffffffffffffffffffffffff16815260200190815260200160002060008673ffffffffffffffffffffffffffffffffffffffff1673ffffffffffffffffffffffffffffffffffffffff16815260200190815260200160002054612da190919063ffffffff16565b600160003373ffffffffffffffffffffffffffffffffffffffff1673ffffffffffffffffffffffffffffffffffffffff16815260200190815260200160002060008573ffffffffffffffffffffffffffffffffffffffff1673ffffffffffffffffffffffffffffffffffffffff168152602001908152602001600020819055508273ffffffffffffffffffffffffffffffffffffffff163373ffffffffffffffffffffffffffffffffffffffff167f8c5be1e5ebec7d5bd14f71427d1e84f3dd0314c0f7b2291e5b200ac8c7c3b925600160003373ffffffffffffffffffffffffffffffffffffffff1673ffffffffffffffffffffffffffffffffffffffff16815260200190815260200160002060008773ffffffffffffffffffffffffffffffffffffffff1673ffffffffffffffffffffffffffffffffffffffff168152602001908152602001600020546040518082815260200191505060405180910390a36001905092915050565b60008060003373ffffffffffffffffffffffffffffffffffffffff1673ffffffffffffffffffffffffffffffffffffffff168152602001908152602001600020548211151515611f5d57600080fd5b600073ffffffffffffffffffffffffffffffffffffffff168373ffffffffffffffffffffffffffffffffffffffff1614151515611f9957600080fd5b611fea826000803373ffffffffffffffffffffffffffffffffffffffff1673ffffffffffffffffffffffffffffffffffffffff16815260200190815260200160002054612da190919063ffffffff16565b6000803373ffffffffffffffffffffffffffffffffffffffff1673ffffffffffffffffffffffffffffffffffffffff1681526020019081526020016000208190555061207d826000808673ffffffffffffffffffffffffffffffffffffffff1673ffffffffffffffffffffffffffffffffffffffff16815260200190815260200160002054612dc290919063ffffffff16565b6000808573ffffffffffffffffffffffffffffffffffffffff1673ffffffffffffffffffffffffffffffffffffffff168152602001908152602001600020819055508273ffffffffffffffffffffffffffffffffffffffff163373ffffffffffffffffffffffffffffffffffffffff167fddf252ad1be2c89b69c2b068fc378daa952ba7f163c4a11628f55a4df523b3ef846040518082815260200191505060405180910390a36001905092915050565b600080600080600061213e613e69565b600560019054906101000a900473ffffffffffffffffffffffffffffffffffffffff1673ffffffffffffffffffffffffffffffffffffffff163373ffffffffffffffffffffffffffffffffffffffff1614151515612204576040517f08c379a000000000000000000000000000000000000000000000000000000000815260040180806020018281038252600d8152602001807f6f6e6c7920696e766573746f720000000000000000000000000000000000000081525060200191505060405180910390fd5b61222f600660075481548110151561221857fe5b906000526020600020906009020160000142612d7f565b15156122a3576040517f08c379a00000000000000000000000000000000000000000000000000000000081526004018080602001828103825260118152602001807f6f6e6c7920696e2073616c652074696d6500000000000000000000000000000081525060200191505060405180910390fd5b60066007548154811015156122b457fe5b906000526020600020906009020195506122d18660080133613849565b945094506122e33487600601546138fd565b9250600080600560019054906101000a900473ffffffffffffffffffffffffffffffffffffffff1673ffffffffffffffffffffffffffffffffffffffff1673ffffffffffffffffffffffffffffffffffffffff1681526020019081526020016000205483111515156123bd576040517f08c379a00000000000000000000000000000000000000000000000000000000081526004018080602001828103825260178152602001807f6974656d2062616c616e6365206e6f7420656e6f75676800000000000000000081525060200191505060405180910390fd5b61243083600080600560019054906101000a900473ffffffffffffffffffffffffffffffffffffffff1673ffffffffffffffffffffffffffffffffffffffff1673ffffffffffffffffffffffffffffffffffffffff16815260200190815260200160002054612da190919063ffffffff16565b600080600560019054906101000a900473ffffffffffffffffffffffffffffffffffffffff1673ffffffffffffffffffffffffffffffffffffffff1673ffffffffffffffffffffffffffffffffffffffff1681526020019081526020016000208190555084156124cb5785600801848154811015156124ab57fe5b906000526020600020906004020191506124c682348561391a565b612590565b6124d633348561395d565b905085600801819080600181540180825580915050906001820390600052602060002090600402016000909192909190915060008201518160000160006101000a81548173ffffffffffffffffffffffffffffffffffffffff021916908373ffffffffffffffffffffffffffffffffffffffff160217905550602082015181600101556040820151816002015560608201518160030160006101000a81548160ff0219169083600281111561258757fe5b02179055505050505b505050505050565b600080600080600560019054906101000a900473ffffffffffffffffffffffffffffffffffffffff1673ffffffffffffffffffffffffffffffffffffffff163373ffffffffffffffffffffffffffffffffffffffff1614151515612664576040517f08c379a000000000000000000000000000000000000000000000000000000000815260040180806020018281038252600d8152602001807f6f6e6c7920696e766573746f720000000000000000000000000000000000000081525060200191505060405180910390fd5b61268f600660075481548110151561267857fe5b9060005260206000209060090201600001426139e7565b1515612703576040517f08c379a00000000000000000000000000000000000000000000000000000000081526004018080602001828103825260118152602001807f6f6e6c7920696e20766f74652074696d6500000000000000000000000000000081525060200191505060405180910390fd5b600660075481548110151561271457fe5b906000526020600020906009020193506127318460080133613849565b925092508215156127d0576040517f08c379a000000000000000000000000000000000000000000000000000000000815260040180806020018281038252602a8152602001807f696e766573746f7220646964206e6f7420706172746963697061746520696e2081526020017f74686520696e766573740000000000000000000000000000000000000000000081525060400191505060405180910390fd5b83600801828154811015156127e157fe5b906000526020600020906004020190506127fa81613a09565b151515612895576040517f08c379a00000000000000000000000000000000000000000000000000000000081526004018080602001828103825260258152602001807f696e766573746f72206861766520706172746963697061746520696e2074686581526020017f20766f746500000000000000000000000000000000000000000000000000000081525060400191505060405180910390fd5b60008514156128ae576128a9816000613a3d565b6128ba565b6128b9816001613a3d565b5b5050505050565b6000600160008473ffffffffffffffffffffffffffffffffffffffff1673ffffffffffffffffffffffffffffffffffffffff16815260200190815260200160002060008373ffffffffffffffffffffffffffffffffffffffff1673ffffffffffffffffffffffffffffffffffffffff16815260200190815260200160002054905092915050565b6000600754905090565b6000600560019054906101000a900473ffffffffffffffffffffffffffffffffffffffff1673ffffffffffffffffffffffffffffffffffffffff163373ffffffffffffffffffffffffffffffffffffffff1614151515612a1a576040517f08c379a000000000000000000000000000000000000000000000000000000000815260040180806020018281038252600d8152602001807f6f6e6c7920696e766573746f720000000000000000000000000000000000000081525060200191505060405180910390fd5b600090505b600680549050811015612ab557612a75600682815481101515612a3e57fe5b9060005260206000209060090201600801600683815481101515612a5e57fe5b906000526020600020906009020160070154612df1565b1515612aa857612aa7600682815481101515612a8d57fe5b906000526020600020906009020160080133613a99613ae3565b5b8080600101915050612a1f565b50565b6000600680549050905060068054809190600101612ad69190613eb3565b5082600682815481101515612ae757fe5b90600052602060002090600902016006018190555081600682815481101515612b0c57fe5b90600052602060002090600902016007018190555088600682815481101515612b3157fe5b90600052602060002090600902016000016000018190555087600682815481101515612b5957fe5b90600052602060002090600902016000016001018190555086600682815481101515612b8157fe5b90600052602060002090600902016000016002018190555085600682815481101515612ba957fe5b90600052602060002090600902016000016003018190555084600682815481101515612bd157fe5b90600052602060002090600902016000016004018190555083600682815481101515612bf957fe5b906000526020600020906009020160000160050181905550505050505050505050565b6000600560019054906101000a900473ffffffffffffffffffffffffffffffffffffffff1673ffffffffffffffffffffffffffffffffffffffff163373ffffffffffffffffffffffffffffffffffffffff16141515612ce3576040517f08c379a00000000000000000000000000000000000000000000000000000000081526004018080602001828103825260098152602001807f6f6e6c79206974656d000000000000000000000000000000000000000000000081525060200191505060405180910390fd5b600090505b600680549050811015612d7c57612d3e600682815481101515612d0757fe5b9060005260206000209060090201600801600683815481101515612d2757fe5b906000526020600020906009020160070154612df1565b15612d6f57612d6e600682815481101515612d5557fe5b9060005260206000209060090201600801613a99613bcd565b5b8080600101915050612ce8565b50565b600082600001548210158015612d99575082600101548211155b905092915050565b600080838311151515612db357600080fd5b82840390508091505092915050565b6000808284019050838110151515612dd957600080fd5b8091505092915050565b612ded8282613c42565b5050565b60008060008060009250600091505b8580549050821015612e4b57612e308683815481101515612e1d57fe5b9060005260206000209060040201613dcd565b15612e3e5782806001019350505b8180600101925050612e00565b6000868054905014151515612ec8576040517f08c379a00000000000000000000000000000000000000000000000000000000081526004018080602001828103825260128152602001807f6e6f20696e766573746f727320766f746564000000000000000000000000000081525060200191505060405180910390fd5b612ef38680549050612ee561271086613e0190919063ffffffff16565b613e3f90919063ffffffff16565b9050612f09606486613e0190919063ffffffff16565b811015935050505092915050565b612f68816000803373ffffffffffffffffffffffffffffffffffffffff1673ffffffffffffffffffffffffffffffffffffffff16815260200190815260200160002054612dc290919063ffffffff16565b6000803373ffffffffffffffffffffffffffffffffffffffff1673ffffffffffffffffffffffffffffffffffffffff1681526020019081526020016000208190555050565b60008090505b828054905081101561301d57612feb8382815481101515612fd057fe5b9060005260206000209060040201600201548363ffffffff16565b60008382815481101515612ffb57fe5b9060005260206000209060040201600201819055508080600101915050612fb3565b505050565b60008090505b8380549050811015613106578273ffffffffffffffffffffffffffffffffffffffff16848281548110151561305957fe5b906000526020600020906004020160000160009054906101000a900473ffffffffffffffffffffffffffffffffffffffff1673ffffffffffffffffffffffffffffffffffffffff1614156130f9576130d384828154811015156130b857fe5b9060005260206000209060040201600201548363ffffffff16565b600084828154811015156130e357fe5b9060005260206000209060040201600201819055505b8080600101915050613028565b50505050565b606060006060600080606080600060649650866040519080825280601f01601f1916602001820160405280156131515781602001602082028038833980820191505090505b509550600094505b6000891415156131f057600a8981151561316f57fe5b069350600a8981151561317e57fe5b049850836030017f01000000000000000000000000000000000000000000000000000000000000000286868060010197508151811015156131bb57fe5b9060200101907effffffffffffffffffffffffffffffffffffffffffffffffffffffffffffff1916908160001a905350613159565b899250848351016040519080825280601f01601f1916602001820160405280156132295781602001602082028038833980820191505090505b509150600090505b82518110156132de57828181518110151561324857fe5b9060200101517f010000000000000000000000000000000000000000000000000000000000000090047f01000000000000000000000000000000000000000000000000000000000000000282828151811015156132a157fe5b9060200101907effffffffffffffffffffffffffffffffffffffffffffffffffffffffffffff1916908160001a9053508080600101915050613231565b600090505b8481101561339757858160018703038151811015156132fe57fe5b9060200101517f010000000000000000000000000000000000000000000000000000000000000090047f010000000000000000000000000000000000000000000000000000000000000002828451830181518110151561335a57fe5b9060200101907effffffffffffffffffffffffffffffffffffffffffffffffffffffffffffff1916908160001a90535080806001019150506132e3565b8197505050505050505092915050565b606080606080606060008088955087945084518651016040519080825280601f01601f1916602001820160405280156133ef5781602001602082028038833980820191505090505b509350839250600091505b85518210156134ad57858281518110151561341157fe5b9060200101517f010000000000000000000000000000000000000000000000000000000000000090047f010000000000000000000000000000000000000000000000000000000000000002838280600101935081518110151561347057fe5b9060200101907effffffffffffffffffffffffffffffffffffffffffffffffffffffffffffff1916908160001a90535081806001019250506133fa565b600091505b845182101561356b5784828060010193508151811015156134cf57fe5b9060200101517f010000000000000000000000000000000000000000000000000000000000000090047f010000000000000000000000000000000000000000000000000000000000000002838280600101935081518110151561352e57fe5b9060200101907effffffffffffffffffffffffffffffffffffffffffffffffffffffffffffff1916908160001a90535081806001019250506134b2565b82965050505050505092915050565b600160008373ffffffffffffffffffffffffffffffffffffffff1673ffffffffffffffffffffffffffffffffffffffff16815260200190815260200160002060003373ffffffffffffffffffffffffffffffffffffffff1673ffffffffffffffffffffffffffffffffffffffff16815260200190815260200160002054811115151561360557600080fd5b61369481600160008573ffffffffffffffffffffffffffffffffffffffff1673ffffffffffffffffffffffffffffffffffffffff16815260200190815260200160002060003373ffffffffffffffffffffffffffffffffffffffff1673ffffffffffffffffffffffffffffffffffffffff16815260200190815260200160002054612da190919063ffffffff16565b600160008473ffffffffffffffffffffffffffffffffffffffff1673ffffffffffffffffffffffffffffffffffffffff16815260200190815260200160002060003373ffffffffffffffffffffffffffffffffffffffff1673ffffffffffffffffffffffffffffffffffffffff1681526020019081526020016000208190555061371e8282612de3565b5050565b600080600281111561373057fe5b8260030160009054906101000a900460ff16600281111561374d57fe5b141561375c5760019050613844565b6001600281111561376957fe5b8260030160009054906101000a900460ff16600281111561378657fe5b14156137955760029050613844565b6002808111156137a157fe5b8260030160009054906101000a900460ff1660028111156137be57fe5b14156137cd5760039050613844565b60001515613843576040517f08c379a000000000000000000000000000000000000000000000000000000000815260040180806020018281038252600a8152602001807f696d706f737369626c650000000000000000000000000000000000000000000081525060200191505060405180910390fd5b5b919050565b60008060008090505b84805490508110156138ea578373ffffffffffffffffffffffffffffffffffffffff16858281548110151561388357fe5b906000526020600020906004020160000160009054906101000a900473ffffffffffffffffffffffffffffffffffffffff1673ffffffffffffffffffffffffffffffffffffffff1614156138dd57600181925092506138f5565b8080600101915050613852565b600080809050925092505b509250929050565b60006139128284613e0190919063ffffffff16565b905092915050565b613931828460010154612dc290919063ffffffff16565b8360010181905550613950818460020154612dc290919063ffffffff16565b8360020181905550505050565b613965613e69565b61396d613e69565b84816000019073ffffffffffffffffffffffffffffffffffffffff16908173ffffffffffffffffffffffffffffffffffffffff168152505083816020018181525050828160400181815250506000816060019060028111156139cb57fe5b908160028111156139d857fe5b81525050809150509392505050565b600082600401548210158015613a01575082600501548211155b905092915050565b6000806002811115613a1757fe5b8260030160009054906101000a900460ff166002811115613a3457fe5b14159050919050565b8015613a6e5760018260030160006101000a81548160ff02191690836002811115613a6457fe5b0217905550613a95565b60028260030160006101000a81548160ff02191690836002811115613a8f57fe5b02179055505b5050565b3373ffffffffffffffffffffffffffffffffffffffff166108fc829081150290604051600060405180830381858888f19350505050158015613adf573d6000803e3d6000fd5b5050565b60008090505b8380549050811015613bc7578273ffffffffffffffffffffffffffffffffffffffff168482815481101515613b1a57fe5b906000526020600020906004020160000160009054906101000a900473ffffffffffffffffffffffffffffffffffffffff1673ffffffffffffffffffffffffffffffffffffffff161415613bba57613b948482815481101515613b7957fe5b9060005260206000209060040201600101548363ffffffff16565b60008482815481101515613ba457fe5b9060005260206000209060040201600101819055505b8080600101915050613ae9565b50505050565b60008090505b8280549050811015613c3d57613c0b8382815481101515613bf057fe5b9060005260206000209060040201600101548363ffffffff16565b60008382815481101515613c1b57fe5b9060005260206000209060040201600101819055508080600101915050613bd3565b505050565b60008273ffffffffffffffffffffffffffffffffffffffff1614151515613c6857600080fd5b6000808373ffffffffffffffffffffffffffffffffffffffff1673ffffffffffffffffffffffffffffffffffffffff168152602001908152602001600020548111151515613cb557600080fd5b613cca81600254612da190919063ffffffff16565b600281905550613d21816000808573ffffffffffffffffffffffffffffffffffffffff1673ffffffffffffffffffffffffffffffffffffffff16815260200190815260200160002054612da190919063ffffffff16565b6000808473ffffffffffffffffffffffffffffffffffffffff1673ffffffffffffffffffffffffffffffffffffffff16815260200190815260200160002081905550600073ffffffffffffffffffffffffffffffffffffffff168273ffffffffffffffffffffffffffffffffffffffff167fddf252ad1be2c89b69c2b068fc378daa952ba7f163c4a11628f55a4df523b3ef836040518082815260200191505060405180910390a35050565b600060016002811115613ddc57fe5b8260030160009054906101000a900460ff166002811115613df957fe5b149050919050565b6000806000841415613e165760009150613e38565b8284029050828482811515613e2757fe5b04141515613e3457600080fd5b8091505b5092915050565b600080600083111515613e5157600080fd5b8284811515613e5c57fe5b0490508091505092915050565b608060405190810160405280600073ffffffffffffffffffffffffffffffffffffffff168152602001600081526020016000815260200160006002811115613ead57fe5b81525090565b815481835581811115613ee057600902816009028360005260206000209182019101613edf9190613ee5565b5b505050565b613f5891905b80821115613f5457600080820160008082016000905560018201600090556002820160009055600382016000905560048201600090556005820160009055505060068201600090556007820160009055600882016000613f4b9190613f5b565b50600901613eeb565b5090565b90565b5080546000825560040290600052602060002090810190613f7c9190613f7f565b50565b613fe691905b80821115613fe257600080820160006101000a81549073ffffffffffffffffffffffffffffffffffffffff0219169055600182016000905560028201600090556003820160006101000a81549060ff021916905550600401613f85565b5090565b905600a165627a7a72305820ec93f58643c3ffb44cb537df609bd295e61a19500ad8e448856f406a53a5ae140029",
  "source": "pragma solidity ^0.4.24;\n\nimport \"openzeppelin-solidity/contracts/token/ERC20/ERC20.sol\";\nimport \"openzeppelin-solidity/contracts/token/ERC20/ERC20Detailed.sol\";\nimport \"openzeppelin-solidity/contracts/token/ERC20/ERC20Burnable.sol\";\nimport \"openzeppelin-solidity/contracts/math/SafeMath.sol\";\n\nimport \"./StageTime.sol\";\nimport \"./Investor.sol\";\nimport \"./StringTools.sol\";\n\ncontract StagesToken is ERC20, ERC20Detailed, ERC20Burnable {\n    using SafeMath for uint;\n\n    address private _item;                 // ()\n\n    Stage[] private _stages;               // \n    uint256 private _currentStageIdx;      // Idx\n\n    struct Stage {\n        StageTime.StageTime_ stageTime;  // \n        uint256 changeRate;              // token (), : 1:1000,ABS1000token\n        uint256 targetAgreeRate;         // agree, :0-100\n        Investor.Investor_[] investors;  // \n    }\n\n    modifier onlyInvestor() {\n        require(msg.sender != _item, \"only investor\");\n        _;\n    }\n\n    modifier onlyItem() {\n        require(msg.sender == _item, \"only item\");\n        _;\n    }\n\n    modifier onlyInSaleTime() {\n        require(StageTime.isInSale(_stages[_currentStageIdx].stageTime, now), \"only in sale time\");\n        _;\n    }\n\n    modifier onlyInVoteTime() {\n        require(StageTime.isInVote(_stages[_currentStageIdx].stageTime, now), \"only in vote time\");\n        _;\n    }\n\n    // \n    function Item() public view\n    returns (address){\n        return _item;\n    }\n\n    // token\n    function ItemBalance() public view\n    returns (uint256) {\n        return balanceOf(_item);\n    }\n\n    // \n    function StagesLen() public view\n    returns (uint256){\n        return _stages.length;\n    }\n\n    // Idx\n    function CurrentStageIdx() public view\n    returns (uint256) {\n        return _currentStageIdx;\n    }\n\n    // \n    function GetStages(uint256 idx) public view\n    returns (string) {\n        require(idx < _stages.length, \"index out of range\");\n\n        string memory str = \"\";\n        str = StringTools.appendUintToString(str, _stages[idx].stageTime.saleBeginTime);\n        str = StringTools.concat(str, \"|\");\n        str = StringTools.appendUintToString(str, _stages[idx].stageTime.saleEndTime);\n        str = StringTools.concat(str, \"|\");\n        str = StringTools.appendUintToString(str, _stages[idx].stageTime.lockBeginTime);\n        str = StringTools.concat(str, \"|\");\n        str = StringTools.appendUintToString(str, _stages[idx].stageTime.lockEndTime);\n        str = StringTools.concat(str, \"|\");\n        str = StringTools.appendUintToString(str, _stages[idx].stageTime.voteBeginTime);\n        str = StringTools.concat(str, \"|\");\n        str = StringTools.appendUintToString(str, _stages[idx].stageTime.voteEndTime);\n        str = StringTools.concat(str, \"|\");\n        str = StringTools.appendUintToString(str, _stages[idx].changeRate);\n        str = StringTools.concat(str, \"|\");\n        str = StringTools.appendUintToString(str, _stages[idx].targetAgreeRate);\n        str = StringTools.concat(str, \"|\");\n        str = StringTools.appendUintToString(str, _stages[idx].investors.length);\n\n        return str;\n    }\n\n\n    // \n    function GetStageInvestor(uint256 stageIdx, uint256 investorIdx) public view\n    returns (address, string) {\n        require(stageIdx < _stages.length, \"index out of range\");\n\n        Stage storage curStage = _stages[stageIdx];\n        require(investorIdx < curStage.investors.length, \"index out of range\");\n\n        Investor.Investor_ storage curInvestor = curStage.investors[investorIdx];\n\n        string memory str = \"\";\n        str = StringTools.appendUintToString(str, curInvestor.investABSNum);\n        str = StringTools.concat(str, \"|\");\n        str = StringTools.appendUintToString(str, curInvestor.itemTokenNum);\n        str = StringTools.concat(str, \"|\");\n        str = StringTools.appendUintToString(str, Investor.GetStateInt(curInvestor));\n        return (curInvestor.id, str);\n    }\n\n    // \n    function AppendStage(\n        uint256 saleBeginTime, uint256 saleEndTime,\n        uint256 lockBeginTime, uint256 lockEndTime,\n        uint256 voteBeginTime, uint256 voteEndTime,\n        uint256 changeRate, uint256 targetAgreeRate) public {\n\n\n        uint256 nextStageIdx = _stages.length;\n        _stages.length++;\n\n        _stages[nextStageIdx].changeRate = changeRate;\n        _stages[nextStageIdx].targetAgreeRate = targetAgreeRate;\n        _stages[nextStageIdx].stageTime.saleBeginTime = saleBeginTime;\n        _stages[nextStageIdx].stageTime.saleEndTime = saleEndTime;\n        _stages[nextStageIdx].stageTime.lockBeginTime = lockBeginTime;\n        _stages[nextStageIdx].stageTime.lockEndTime = lockEndTime;\n        _stages[nextStageIdx].stageTime.voteBeginTime = voteBeginTime;\n        _stages[nextStageIdx].stageTime.voteEndTime = voteEndTime;\n\n    }\n\n    // \n    function SwitchStage() public {\n        uint256 i = _currentStageIdx;\n        for (; i < _stages.length; i++) {\n            if (StageTime.isInSale(_stages[i].stageTime, now)) {\n                break;\n            }\n        }\n        if (i != _currentStageIdx && i < _stages.length) {\n            _currentStageIdx = i;\n        }\n    }\n\n    // : ABS\n    function Invest() public payable onlyInvestor onlyInSaleTime {\n        Stage storage curStage = _stages[_currentStageIdx];\n        (bool exist, uint256 idx) = Investor.findInIdx(curStage.investors, msg.sender);\n\n        // 1. A. token B. token\n        uint256 rateTokenNum = calcRateToken(msg.value, curStage.changeRate);\n        require(rateTokenNum <= _balances[_item], \"item balance not enough\");\n        _balances[_item] = _balances[_item].sub(rateTokenNum);\n\n        // 2. A. ABS B. ABS\n        if (exist) {\n            Investor.Investor_ storage curInvestor = curStage.investors[idx];\n            Investor.appendInvest(curInvestor, msg.value, rateTokenNum);\n        } else {\n            Investor.Investor_ memory investor = Investor.newInvestor(msg.sender, msg.value, rateTokenNum);\n            curStage.investors.push(investor);\n        }\n    }\n\n    // :  0=,=\n    function Vote(uint256 isAgree) public onlyInvestor onlyInVoteTime {\n        Stage storage curStage = _stages[_currentStageIdx];\n\n        // \n        (bool exist, uint256 idx) = Investor.findInIdx(curStage.investors, msg.sender);\n        require(exist, \"investor did not participate in the invest\");\n\n        Investor.Investor_ storage curInvestor = curStage.investors[idx];\n\n        // \n        require(!Investor.isVoted(curInvestor), \"investor have participate in the vote\");\n\n        if (isAgree == 0) {\n            Investor.vote(curInvestor, false);\n        } else {\n            Investor.vote(curInvestor, true);\n        }\n    }\n\n    // : () token\n    function InvestorWithdrawToken() public onlyInvestor {\n        for (uint256 i = 0; i < _stages.length; i++) {\n            if (Investor.isVoteAgreeAchieveTarget(_stages[i].investors, _stages[i].targetAgreeRate)) {\n                Investor.investorWithdrawToken(_stages[i].investors, msg.sender, addSendersToken);\n            }\n        }\n    }\n\n    // : () ABS\n    function InvestorWithdrawAbs() public onlyInvestor {\n        for (uint256 i = 0; i < _stages.length; i++) {\n            if (!Investor.isVoteAgreeAchieveTarget(_stages[i].investors, _stages[i].targetAgreeRate)) {\n                Investor.investorWithdrawABS(_stages[i].investors, msg.sender, addSendersABS);\n            }\n        }\n    }\n\n    // : () ABS\n    function ItemWithdrawABS() public onlyItem {\n        for (uint256 i = 0; i < _stages.length; i++) {\n            if (Investor.isVoteAgreeAchieveTarget(_stages[i].investors, _stages[i].targetAgreeRate)) {\n                Investor.itemWithdrawABS(_stages[i].investors, addSendersABS);\n            }\n        }\n    }\n\n    // : () token\n    function ItemWithdrawToken() public onlyItem {\n        for (uint256 i = 0; i < _stages.length; i++) {\n            if (!Investor.isVoteAgreeAchieveTarget(_stages[i].investors, _stages[i].targetAgreeRate)) {\n                Investor.itemWithdrawToken(_stages[i].investors, addSendersToken);\n            }\n        }\n    }\n\n    // ABS -> token ()\n    function calcRateToken(uint256 ABSNum, uint256 changeRate) private pure\n    returns (uint256){\n        return ABSNum.mul(changeRate);\n    }\n\n    // token\n    function addSendersToken(uint256 tokenNum) private {\n        _balances[msg.sender] = _balances[msg.sender].add(tokenNum);\n    }\n\n    // ABS\n    function addSendersABS(uint256 ABSNum) private {\n        msg.sender.transfer(ABSNum);\n    }\n\n    constructor (\n        string name,\n        string symbol,\n        uint8 decimals,\n        uint256 totalSupply\n    )\n    ERC20Burnable()\n    ERC20Detailed(name, symbol, decimals)\n    ERC20()\n    public {\n        _totalSupply = totalSupply * (10 ** uint256(decimals));\n        _item = msg.sender;\n        _balances[_item] = _totalSupply;\n\n        // \n        _currentStageIdx = 0;\n    }\n}\n",
  "sourcePath": "/mnt/disk1/linux/reference/project/testsol/stages/contracts/StagesToken.sol",
  "compiler": {
    "name": "solc",
    "version": "0.4.24+commit.e67f0147.Emscripten.clang"
  },
  "schemaVersion": "2.0.1",
  "updatedAt": "2018-09-14T08:18:20.164Z"
}